{
  "abi": [
    {
      "inputs": [],
      "stateMutability": "nonpayable",
      "type": "constructor"
    },
    {
      "anonymous": false,
      "inputs": [
        {
          "indexed": true,
          "internalType": "address",
          "name": "owner",
          "type": "address"
        },
        {
          "indexed": true,
          "internalType": "address",
          "name": "approved",
          "type": "address"
        },
        {
          "indexed": true,
          "internalType": "uint256",
          "name": "tokenId",
          "type": "uint256"
        }
      ],
      "name": "Approval",
      "type": "event"
    },
    {
      "anonymous": false,
      "inputs": [
        {
          "indexed": true,
          "internalType": "address",
          "name": "owner",
          "type": "address"
        },
        {
          "indexed": true,
          "internalType": "address",
          "name": "operator",
          "type": "address"
        },
        {
          "indexed": false,
          "internalType": "bool",
          "name": "approved",
          "type": "bool"
        }
      ],
      "name": "ApprovalForAll",
      "type": "event"
    },
    {
      "anonymous": false,
      "inputs": [
        {
          "indexed": true,
          "internalType": "address",
          "name": "previousOwner",
          "type": "address"
        },
        {
          "indexed": true,
          "internalType": "address",
          "name": "newOwner",
          "type": "address"
        }
      ],
      "name": "OwnershipTransferred",
      "type": "event"
    },
    {
      "anonymous": false,
      "inputs": [
        {
          "indexed": true,
          "internalType": "address",
          "name": "from",
          "type": "address"
        },
        {
          "indexed": true,
          "internalType": "address",
          "name": "to",
          "type": "address"
        },
        {
          "indexed": true,
          "internalType": "uint256",
          "name": "tokenId",
          "type": "uint256"
        }
      ],
      "name": "Transfer",
      "type": "event"
    },
    {
      "inputs": [
        {
          "internalType": "uint256",
          "name": "",
          "type": "uint256"
        }
      ],
      "name": "FrigDescriptions",
      "outputs": [
        {
          "internalType": "string",
          "name": "",
          "type": "string"
        }
      ],
      "stateMutability": "view",
      "type": "function"
    },
    {
      "inputs": [
        {
          "internalType": "uint256",
          "name": "",
          "type": "uint256"
        }
      ],
      "name": "FrigNames",
      "outputs": [
        {
          "internalType": "string",
          "name": "",
          "type": "string"
        }
      ],
      "stateMutability": "view",
      "type": "function"
    },
    {
      "inputs": [
        {
          "internalType": "address",
          "name": "to",
          "type": "address"
        },
        {
          "internalType": "uint256",
          "name": "tokenId",
          "type": "uint256"
        }
      ],
      "name": "approve",
      "outputs": [],
      "stateMutability": "nonpayable",
      "type": "function"
    },
    {
      "inputs": [
        {
          "internalType": "address",
          "name": "owner",
          "type": "address"
        }
      ],
      "name": "balanceOf",
      "outputs": [
        {
          "internalType": "uint256",
          "name": "",
          "type": "uint256"
        }
      ],
      "stateMutability": "view",
      "type": "function"
    },
    {
      "inputs": [
        {
          "internalType": "uint256",
          "name": "_id",
          "type": "uint256"
        },
        {
          "internalType": "string",
          "name": "FrigginDescription",
          "type": "string"
        }
      ],
      "name": "changeDescription",
      "outputs": [],
      "stateMutability": "nonpayable",
      "type": "function"
    },
    {
      "inputs": [
        {
          "internalType": "uint256",
          "name": "_id",
          "type": "uint256"
        },
        {
          "internalType": "string",
          "name": "FrigginName",
          "type": "string"
        }
      ],
      "name": "changeName",
      "outputs": [],
      "stateMutability": "nonpayable",
      "type": "function"
    },
    {
      "inputs": [],
      "name": "changeToMainSales",
      "outputs": [],
      "stateMutability": "nonpayable",
      "type": "function"
    },
    {
      "inputs": [],
      "name": "changeToPreSales",
      "outputs": [],
      "stateMutability": "nonpayable",
      "type": "function"
    },
    {
      "inputs": [],
      "name": "extensionURI",
      "outputs": [
        {
          "internalType": "string",
          "name": "",
          "type": "string"
        }
      ],
      "stateMutability": "view",
      "type": "function"
    },
    {
      "inputs": [
        {
          "internalType": "uint256",
          "name": "tokenId",
          "type": "uint256"
        }
      ],
      "name": "getApproved",
      "outputs": [
        {
          "internalType": "address",
          "name": "",
          "type": "address"
        }
      ],
      "stateMutability": "view",
      "type": "function"
    },
    {
      "inputs": [],
      "name": "getPriceToMintOne",
      "outputs": [
        {
          "internalType": "uint256",
          "name": "",
          "type": "uint256"
        }
      ],
      "stateMutability": "view",
      "type": "function"
    },
    {
      "inputs": [],
      "name": "getPriceToMintTen",
      "outputs": [
        {
          "internalType": "uint256",
          "name": "",
          "type": "uint256"
        }
      ],
      "stateMutability": "view",
      "type": "function"
    },
    {
      "inputs": [],
      "name": "getPriceToMintThree",
      "outputs": [
        {
          "internalType": "uint256",
          "name": "",
          "type": "uint256"
        }
      ],
      "stateMutability": "view",
      "type": "function"
    },
    {
      "inputs": [
        {
          "internalType": "address",
          "name": "owner",
          "type": "address"
        },
        {
          "internalType": "address",
          "name": "operator",
          "type": "address"
        }
      ],
      "name": "isApprovedForAll",
      "outputs": [
        {
          "internalType": "bool",
          "name": "",
          "type": "bool"
        }
      ],
      "stateMutability": "view",
      "type": "function"
    },
    {
      "inputs": [],
      "name": "mintEggForFree",
      "outputs": [],
      "stateMutability": "nonpayable",
      "type": "function"
    },
    {
      "inputs": [],
      "name": "mintOneEgg",
      "outputs": [],
      "stateMutability": "payable",
      "type": "function"
    },
    {
      "inputs": [],
      "name": "mintTenEggs",
      "outputs": [],
      "stateMutability": "payable",
      "type": "function"
    },
    {
      "inputs": [],
      "name": "mintThreeEggs",
      "outputs": [],
      "stateMutability": "payable",
      "type": "function"
    },
    {
      "inputs": [],
      "name": "name",
      "outputs": [
        {
          "internalType": "string",
          "name": "",
          "type": "string"
        }
      ],
      "stateMutability": "view",
      "type": "function"
    },
    {
      "inputs": [],
      "name": "owner",
      "outputs": [
        {
          "internalType": "address",
          "name": "",
          "type": "address"
        }
      ],
      "stateMutability": "view",
      "type": "function"
    },
    {
      "inputs": [
        {
          "internalType": "uint256",
          "name": "tokenId",
          "type": "uint256"
        }
      ],
      "name": "ownerOf",
      "outputs": [
        {
          "internalType": "address",
          "name": "",
          "type": "address"
        }
      ],
      "stateMutability": "view",
      "type": "function"
    },
    {
      "inputs": [],
      "name": "pauseProject",
      "outputs": [],
      "stateMutability": "nonpayable",
      "type": "function"
    },
    {
      "inputs": [],
      "name": "projectStage",
      "outputs": [
        {
          "internalType": "enum FrigginEggs.STAGES",
          "name": "",
          "type": "uint8"
        }
      ],
      "stateMutability": "view",
      "type": "function"
    },
    {
      "inputs": [],
      "name": "renounceOwnership",
      "outputs": [],
      "stateMutability": "nonpayable",
      "type": "function"
    },
    {
      "inputs": [
        {
          "internalType": "address",
          "name": "_to",
          "type": "address"
        },
        {
          "internalType": "uint256",
          "name": "_reserveAmount",
          "type": "uint256"
        }
      ],
      "name": "reserveFrig",
      "outputs": [],
      "stateMutability": "nonpayable",
      "type": "function"
    },
    {
      "inputs": [
        {
          "internalType": "address",
          "name": "from",
          "type": "address"
        },
        {
          "internalType": "address",
          "name": "to",
          "type": "address"
        },
        {
          "internalType": "uint256",
          "name": "tokenId",
          "type": "uint256"
        }
      ],
      "name": "safeTransferFrom",
      "outputs": [],
      "stateMutability": "nonpayable",
      "type": "function"
    },
    {
      "inputs": [
        {
          "internalType": "address",
          "name": "from",
          "type": "address"
        },
        {
          "internalType": "address",
          "name": "to",
          "type": "address"
        },
        {
          "internalType": "uint256",
          "name": "tokenId",
          "type": "uint256"
        },
        {
          "internalType": "bytes",
          "name": "_data",
          "type": "bytes"
        }
      ],
      "name": "safeTransferFrom",
      "outputs": [],
      "stateMutability": "nonpayable",
      "type": "function"
    },
    {
      "inputs": [
        {
          "internalType": "address",
          "name": "operator",
          "type": "address"
        },
        {
          "internalType": "bool",
          "name": "approved",
          "type": "bool"
        }
      ],
      "name": "setApprovalForAll",
      "outputs": [],
      "stateMutability": "nonpayable",
      "type": "function"
    },
    {
      "inputs": [
        {
          "internalType": "string",
          "name": "baseURI_",
          "type": "string"
        }
      ],
      "name": "setBaseURI",
      "outputs": [],
      "stateMutability": "nonpayable",
      "type": "function"
    },
    {
      "inputs": [
        {
          "internalType": "string",
          "name": "extensionURI_",
          "type": "string"
        }
      ],
      "name": "setExtensionURI",
      "outputs": [],
      "stateMutability": "nonpayable",
      "type": "function"
    },
    {
      "inputs": [
        {
          "internalType": "uint256",
          "name": "tokenId",
          "type": "uint256"
        },
        {
          "internalType": "string",
          "name": "_tokenURI",
          "type": "string"
        }
      ],
      "name": "setTokenURI",
      "outputs": [],
      "stateMutability": "nonpayable",
      "type": "function"
    },
    {
      "inputs": [
        {
          "internalType": "bytes4",
          "name": "interfaceId",
          "type": "bytes4"
        }
      ],
      "name": "supportsInterface",
      "outputs": [
        {
          "internalType": "bool",
          "name": "",
          "type": "bool"
        }
      ],
      "stateMutability": "view",
      "type": "function"
    },
    {
      "inputs": [],
      "name": "symbol",
      "outputs": [
        {
          "internalType": "string",
          "name": "",
          "type": "string"
        }
      ],
      "stateMutability": "view",
      "type": "function"
    },
    {
      "inputs": [
        {
          "internalType": "uint256",
          "name": "index",
          "type": "uint256"
        }
      ],
      "name": "tokenByIndex",
      "outputs": [
        {
          "internalType": "uint256",
          "name": "",
          "type": "uint256"
        }
      ],
      "stateMutability": "view",
      "type": "function"
    },
    {
      "inputs": [
        {
          "internalType": "address",
          "name": "owner",
          "type": "address"
        },
        {
          "internalType": "uint256",
          "name": "index",
          "type": "uint256"
        }
      ],
      "name": "tokenOfOwnerByIndex",
      "outputs": [
        {
          "internalType": "uint256",
          "name": "",
          "type": "uint256"
        }
      ],
      "stateMutability": "view",
      "type": "function"
    },
    {
      "inputs": [
        {
          "internalType": "uint256",
          "name": "tokenId",
          "type": "uint256"
        }
      ],
      "name": "tokenURI",
      "outputs": [
        {
          "internalType": "string",
          "name": "",
          "type": "string"
        }
      ],
      "stateMutability": "view",
      "type": "function"
    },
    {
      "inputs": [
        {
          "internalType": "address",
          "name": "_owner",
          "type": "address"
        }
      ],
      "name": "tokensOfOwner",
      "outputs": [
        {
          "internalType": "uint256[]",
          "name": "",
          "type": "uint256[]"
        }
      ],
      "stateMutability": "view",
      "type": "function"
    },
    {
      "inputs": [],
      "name": "totalSupply",
      "outputs": [
        {
          "internalType": "uint256",
          "name": "",
          "type": "uint256"
        }
      ],
      "stateMutability": "view",
      "type": "function"
    },
    {
      "inputs": [
        {
          "internalType": "address",
          "name": "from",
          "type": "address"
        },
        {
          "internalType": "address",
          "name": "to",
          "type": "address"
        },
        {
          "internalType": "uint256",
          "name": "tokenId",
          "type": "uint256"
        }
      ],
      "name": "transferFrom",
      "outputs": [],
      "stateMutability": "nonpayable",
      "type": "function"
    },
    {
      "inputs": [
        {
          "internalType": "address",
          "name": "newOwner",
          "type": "address"
        }
      ],
      "name": "transferOwnership",
      "outputs": [],
      "stateMutability": "nonpayable",
      "type": "function"
    },
    {
      "inputs": [],
      "name": "withdrawAll",
      "outputs": [],
      "stateMutability": "payable",
      "type": "function"
    }
  ],
  "bytecode": "60806040526005601055600560115560246012553480156200002057600080fd5b50604080518082018252600b81526a4672696767696e4567677360a81b6020808301918252835180850190945260048452634547475360e01b908401528151919291620000709160009162000109565b5080516200008690600190602084019062000109565b505050620000a36200009d620000b360201b60201c565b620000b7565b6013805460ff19169055620001ec565b3390565b600a80546001600160a01b038381166001600160a01b0319831681179093556040519116919082907f8be0079c531659141344cd1fd0a4f28419497f9722a3daafe3b4186f6b6457e090600090a35050565b8280546200011790620001af565b90600052602060002090601f0160209004810192826200013b576000855562000186565b82601f106200015657805160ff191683800117855562000186565b8280016001018555821562000186579182015b828111156200018657825182559160200191906001019062000169565b506200019492915062000198565b5090565b5b8082111562000194576000815560010162000199565b600181811c90821680620001c457607f821691505b60208210811415620001e657634e487b7160e01b600052602260045260246000fd5b50919050565b612fc980620001fc6000396000f3fe6080604052600436106102465760003560e01c806370a0823111610139578063c39cbef1116100b6578063de6a06ed1161007a578063de6a06ed14610651578063e7c76e2914610671578063e985e9c514610686578063ebcbb946146106cf578063f2fde38b146106e4578063fbf442c41461070457600080fd5b8063c39cbef1146105b1578063c3bb8c64146105d1578063c87b56dd146105f1578063d31f1c2914610611578063d34c3d181461063157600080fd5b806395d89b41116100fd57806395d89b4114610527578063a22cb4651461053c578063ac5f60611461055c578063b07d29e41461057c578063b88d4fde1461059157600080fd5b806370a082311461049f578063715018a6146104bf5780638462151c146104d4578063853828b6146105015780638da5cb5b1461050957600080fd5b80633740bcc9116101c757806355f804b31161018b57806355f804b31461043a5780635d0e5d0b1461045a5780635dfb870e146104625780636352211e1461046a578063653e11551461048a57600080fd5b80633740bcc9146103a95780633fe2d3b1146103be57806342842e0e146103d35780634f6ccce7146103f357806352731e8f1461041357600080fd5b806312db1f051161020e57806312db1f051461031f578063162094c41461033457806318160ddd1461035457806323b872dd146103695780632f745c591461038957600080fd5b8063014b4f0b1461024b57806301ffc9a71461027357806306fdde03146102a3578063081812fc146102c5578063095ea7b3146102fd575b600080fd5b34801561025757600080fd5b5061026061070c565b6040519081526020015b60405180910390f35b34801561027f57600080fd5b5061029361028e3660046127fb565b6107b2565b604051901515815260200161026a565b3480156102af57600080fd5b506102b86107dd565b60405161026a9190612870565b3480156102d157600080fd5b506102e56102e0366004612883565b61086f565b6040516001600160a01b03909116815260200161026a565b34801561030957600080fd5b5061031d6103183660046128b8565b6108f7565b005b34801561032b57600080fd5b5061031d610a0d565b34801561034057600080fd5b5061031d61034f36600461298e565b610a4e565b34801561036057600080fd5b50600854610260565b34801561037557600080fd5b5061031d6103843660046129d5565b610b03565b34801561039557600080fd5b506102606103a43660046128b8565b610b34565b3480156103b557600080fd5b5061031d610bca565b3480156103ca57600080fd5b5061031d610d37565b3480156103df57600080fd5b5061031d6103ee3660046129d5565b610d75565b3480156103ff57600080fd5b5061026061040e366004612883565b610d90565b34801561041f57600080fd5b5060135461042d9060ff1681565b60405161026a9190612a27565b34801561044657600080fd5b5061031d610455366004612a4f565b610e23565b61031d610e64565b61031d610f3d565b34801561047657600080fd5b506102e5610485366004612883565b611014565b34801561049657600080fd5b5061031d61108b565b3480156104ab57600080fd5b506102606104ba366004612a84565b6110c8565b3480156104cb57600080fd5b5061031d61114f565b3480156104e057600080fd5b506104f46104ef366004612a84565b611183565b60405161026a9190612a9f565b61031d611247565b34801561051557600080fd5b50600a546001600160a01b03166102e5565b34801561053357600080fd5b506102b86113c7565b34801561054857600080fd5b5061031d610557366004612ae3565b6113d6565b34801561056857600080fd5b5061031d6105773660046128b8565b6113e1565b34801561058857600080fd5b506102606114c5565b34801561059d57600080fd5b5061031d6105ac366004612b1f565b611555565b3480156105bd57600080fd5b5061031d6105cc36600461298e565b61158d565b3480156105dd57600080fd5b5061031d6105ec366004612a4f565b61160c565b3480156105fd57600080fd5b506102b861060c366004612883565b611649565b34801561061d57600080fd5b506102b861062c366004612883565b611853565b34801561063d57600080fd5b506102b861064c366004612883565b6118ed565b34801561065d57600080fd5b5061031d61066c36600461298e565b611906565b34801561067d57600080fd5b506102b8611985565b34801561069257600080fd5b506102936106a1366004612b9b565b6001600160a01b03918216600090815260056020908152604080832093909416825291909152205460ff1690565b3480156106db57600080fd5b50610260611992565b3480156106f057600080fd5b5061031d6106ff366004612a84565b611a20565b61031d611abb565b60008060135460ff16600281111561072657610726612a11565b141561074d5760405162461bcd60e51b815260040161074490612bce565b60405180910390fd5b600160135460ff16600281111561076657610766612a11565b1415610779575067017fb16d83be000090565b600260135460ff16600281111561079257610792612a11565b14156107a557506701df9dc8e4ad800090565b506701df9dc8e4ad800090565b60006001600160e01b0319821663780e9d6360e01b14806107d757506107d782611b88565b92915050565b6060600080546107ec90612c12565b80601f016020809104026020016040519081016040528092919081815260200182805461081890612c12565b80156108655780601f1061083a57610100808354040283529160200191610865565b820191906000526020600020905b81548152906001019060200180831161084857829003601f168201915b5050505050905090565b600061087a82611bd8565b6108db5760405162461bcd60e51b815260206004820152602c60248201527f4552433732313a20617070726f76656420717565727920666f72206e6f6e657860448201526b34b9ba32b73a103a37b5b2b760a11b6064820152608401610744565b506000908152600460205260409020546001600160a01b031690565b600061090282611014565b9050806001600160a01b0316836001600160a01b031614156109705760405162461bcd60e51b815260206004820152602160248201527f4552433732313a20617070726f76616c20746f2063757272656e74206f776e656044820152603960f91b6064820152608401610744565b336001600160a01b038216148061098c575061098c81336106a1565b6109fe5760405162461bcd60e51b815260206004820152603860248201527f4552433732313a20617070726f76652063616c6c6572206973206e6f74206f7760448201527f6e6572206e6f7220617070726f76656420666f7220616c6c00000000000000006064820152608401610744565b610a088383611bf5565b505050565b600a546001600160a01b03163314610a375760405162461bcd60e51b815260040161074490612c47565b601380546000919060ff19166001835b0217905550565b600a546001600160a01b03163314610a785760405162461bcd60e51b815260040161074490612c47565b610a8182611bd8565b610ae45760405162461bcd60e51b815260206004820152602e60248201527f45524337323155524953746f726167653a2055524920736574206f66206e6f6e60448201526d32bc34b9ba32b73a103a37b5b2b760911b6064820152608401610744565b6000828152600b602090815260409091208251610a089284019061274c565b610b0d3382611c63565b610b295760405162461bcd60e51b815260040161074490612c7c565b610a08838383611d4d565b6000610b3f836110c8565b8210610ba15760405162461bcd60e51b815260206004820152602b60248201527f455243373231456e756d657261626c653a206f776e657220696e646578206f7560448201526a74206f6620626f756e647360a81b6064820152608401610744565b506001600160a01b03919091166000908152600660209081526040808320938352929052205490565b600060135460ff166002811115610be357610be3612a11565b1415610c3f5760405162461bcd60e51b815260206004820152602560248201527f53616c65206d7573742062652061637469766520746f206d696e742046726565604482015264206567677360d81b6064820152608401610744565b60016011541015610c925760405162461bcd60e51b815260206004820152601b60248201527f4e6f206d6f72652046726565204567677320617661696c61626c6500000000006044820152606401610744565b601054601254610ca29190612ce3565b600854610cb0906001612cfa565b1115610cbb57600080fd5b610cc4336110c8565b15610d115760405162461bcd60e51b815260206004820152601e60248201527f596f7520616c726561647920686176652061204672696767696e2045676700006044820152606401610744565b610d2333610d1e60085490565b611ef8565b6001601154610d329190612ce3565b601155565b600a546001600160a01b03163314610d615760405162461bcd60e51b815260040161074490612c47565b601380546002919060ff1916600183610a47565b610a0883838360405180602001604052806000815250611555565b6000610d9b60085490565b8210610dfe5760405162461bcd60e51b815260206004820152602c60248201527f455243373231456e756d657261626c653a20676c6f62616c20696e646578206f60448201526b7574206f6620626f756e647360a01b6064820152608401610744565b60088281548110610e1157610e11612d12565b90600052602060002001549050919050565b600a546001600160a01b03163314610e4d5760405162461bcd60e51b815260040161074490612c47565b8051610e6090600c90602084019061274c565b5050565b600060135460ff166002811115610e7d57610e7d612a11565b1415610e9b5760405162461bcd60e51b815260040161074490612d28565b601054601254610eab9190612ce3565b600854610eb990600a612cfa565b1115610ed75760405162461bcd60e51b815260040161074490612d5d565b610ee36009600f612ce3565b610eec336110c8565b10610f095760405162461bcd60e51b815260040161074490612da9565b34610f126114c5565b1115610f305760405162461bcd60e51b815260040161074490612df3565b610f3b600a33611f12565b565b600060135460ff166002811115610f5657610f56612a11565b1415610f745760405162461bcd60e51b815260040161074490612d28565b601054601254610f849190612ce3565b600854610f92906003612cfa565b1115610fb05760405162461bcd60e51b815260040161074490612d5d565b610fbc6002600f612ce3565b610fc5336110c8565b10610fe25760405162461bcd60e51b815260040161074490612da9565b34610feb61070c565b11156110095760405162461bcd60e51b815260040161074490612df3565b610f3b600333611f12565b6000818152600260205260408120546001600160a01b0316806107d75760405162461bcd60e51b815260206004820152602960248201527f4552433732313a206f776e657220717565727920666f72206e6f6e657869737460448201526832b73a103a37b5b2b760b91b6064820152608401610744565b600a546001600160a01b031633146110b55760405162461bcd60e51b815260040161074490612c47565b601380546001919060ff19168280610a47565b60006001600160a01b0382166111335760405162461bcd60e51b815260206004820152602a60248201527f4552433732313a2062616c616e636520717565727920666f7220746865207a65604482015269726f206164647265737360b01b6064820152608401610744565b506001600160a01b031660009081526003602052604090205490565b600a546001600160a01b031633146111795760405162461bcd60e51b815260040161074490612c47565b610f3b6000611f4a565b60606000611190836110c8565b9050801561122b5760008167ffffffffffffffff8111156111b3576111b36128e2565b6040519080825280602002602001820160405280156111dc578160200160208202803683370190505b50905060005b82811015611223576111f48582610b34565b82828151811061120657611206612d12565b60209081029190910101528061121b81612e2a565b9150506111e2565b509392505050565b6040805160008082526020820190925290611223565b50919050565b600a546001600160a01b031633146112715760405162461bcd60e51b815260040161074490612c47565b6000606461128047601d612e45565b61128a9190612e7a565b90506000606461129b476009612e45565b6112a59190612e7a565b604051909150731f2a9ec7f7b2dc4491e0206c65e8ab8f4b4c3c3f9083156108fc029084906000818181858888f193505050506112e157600080fd5b604051738f2eb78f0895bc4f93b6e65462cb2458035ee8179083156108fc029084906000818181858888f1935050505061131a57600080fd5b604051734c11fa301e246a32c4276b38be2bb689c0ba4bac9083156108fc029084906000818181858888f1935050505061135357600080fd5b60405173dce642cc913d21a2ee3c67cbd63c22a00a20cd5f9082156108fc029083906000818181858888f1935050505061138c57600080fd5b6040514790732e70f672a7f9d9f45cf622965303eab428b6df049082156108fc029083906000818181858888f19350505050610a0857600080fd5b6060600180546107ec90612c12565b610e60338383611f9c565b600a546001600160a01b0316331461140b5760405162461bcd60e51b815260040161074490612c47565b600061141660085490565b905060008211801561142a57506010548211155b6114825760405162461bcd60e51b815260206004820152602360248201527f4e6f7420656e6f7567682065676773206c65667420696e20746865207265736560448201526272766560e81b6064820152608401610744565b60005b828110156114ad5761149b84610d1e8385612cfa565b806114a581612e2a565b915050611485565b5060016010546114bd9190612ce3565b601055505050565b60008060135460ff1660028111156114df576114df612a11565b14156114fd5760405162461bcd60e51b815260040161074490612bce565b600160135460ff16600281111561151657611516612a11565b14156115295750670470de4df820000090565b600260135460ff16600281111561154257611542612a11565b14156107a5575067058d15e17628000090565b61155f3383611c63565b61157b5760405162461bcd60e51b815260040161074490612c7c565b6115878484848461206b565b50505050565b3361159783611014565b6001600160a01b0316146115ed5760405162461bcd60e51b815260206004820152601e60248201527f596f7520646f206e6f74206f776e2074686973204672696767696e45676700006044820152606401610744565b6000828152600e602090815260409091208251610a089284019061274c565b600a546001600160a01b031633146116365760405162461bcd60e51b815260040161074490612c47565b8051610e6090600d90602084019061274c565b606061165482611bd8565b6116ba5760405162461bcd60e51b815260206004820152603160248201527f45524337323155524953746f726167653a2055524920717565727920666f72206044820152703737b732bc34b9ba32b73a103a37b5b2b760791b6064820152608401610744565b6000828152600b6020526040812080546116d390612c12565b80601f01602080910402602001604051908101604052809291908181526020018280546116ff90612c12565b801561174c5780601f106117215761010080835404028352916020019161174c565b820191906000526020600020905b81548152906001019060200180831161172f57829003601f168201915b50505050509050805160001415611769576117668361209e565b90505b600061177361219c565b9050600061177f6121ab565b90508151600014801561179157508051155b1561179f5750909392505050565b81511580156117af575060008151115b156117e05782816040516020016117c7929190612e8e565b6040516020818303038152906040529350505050919050565b600082511180156117f057508051155b156118085781836040516020016117c7929190612e8e565b825115611841578183604051602001611822929190612e8e565b60408051601f19818403018152908290526117c7918390602001612e8e565b61184a856121ba565b95945050505050565b600e602052600090815260409020805461186c90612c12565b80601f016020809104026020016040519081016040528092919081815260200182805461189890612c12565b80156118e55780601f106118ba576101008083540402835291602001916118e5565b820191906000526020600020905b8154815290600101906020018083116118c857829003601f168201915b505050505081565b600f602052600090815260409020805461186c90612c12565b3361191083611014565b6001600160a01b0316146119665760405162461bcd60e51b815260206004820152601e60248201527f596f7520646f206e6f74206f776e2074686973204672696767696e45676700006044820152606401610744565b6000828152600f602090815260409091208251610a089284019061274c565b600d805461186c90612c12565b60008060135460ff1660028111156119ac576119ac612a11565b14156119ca5760405162461bcd60e51b815260040161074490612bce565b600160135460ff1660028111156119e3576119e3612a11565b14156119f55750668e1bc9bf04000090565b600260135460ff166002811115611a0e57611a0e612a11565b14156107a5575066b1a2bc2ec5000090565b600a546001600160a01b03163314611a4a5760405162461bcd60e51b815260040161074490612c47565b6001600160a01b038116611aaf5760405162461bcd60e51b815260206004820152602660248201527f4f776e61626c653a206e6577206f776e657220697320746865207a65726f206160448201526564647265737360d01b6064820152608401610744565b611ab881611f4a565b50565b600060135460ff166002811115611ad457611ad4612a11565b1415611af25760405162461bcd60e51b815260040161074490612d28565b601054601254611b029190612ce3565b600854611b10906001612cfa565b1115611b2e5760405162461bcd60e51b815260040161074490612d5d565b600f611b39336110c8565b10611b565760405162461bcd60e51b815260040161074490612da9565b34611b5f611992565b1115611b7d5760405162461bcd60e51b815260040161074490612df3565b610f3b600133611f12565b60006001600160e01b031982166380ac58cd60e01b1480611bb957506001600160e01b03198216635b5e139f60e01b145b806107d757506301ffc9a760e01b6001600160e01b03198316146107d7565b6000908152600260205260409020546001600160a01b0316151590565b600081815260046020526040902080546001600160a01b0319166001600160a01b0384169081179091558190611c2a82611014565b6001600160a01b03167f8c5be1e5ebec7d5bd14f71427d1e84f3dd0314c0f7b2291e5b200ac8c7c3b92560405160405180910390a45050565b6000611c6e82611bd8565b611ccf5760405162461bcd60e51b815260206004820152602c60248201527f4552433732313a206f70657261746f7220717565727920666f72206e6f6e657860448201526b34b9ba32b73a103a37b5b2b760a11b6064820152608401610744565b6000611cda83611014565b9050806001600160a01b0316846001600160a01b03161480611d155750836001600160a01b0316611d0a8461086f565b6001600160a01b0316145b80611d4557506001600160a01b0380821660009081526005602090815260408083209388168352929052205460ff165b949350505050565b826001600160a01b0316611d6082611014565b6001600160a01b031614611dc85760405162461bcd60e51b815260206004820152602960248201527f4552433732313a207472616e73666572206f6620746f6b656e2074686174206960448201526839903737ba1037bbb760b91b6064820152608401610744565b6001600160a01b038216611e2a5760405162461bcd60e51b8152602060048201526024808201527f4552433732313a207472616e7366657220746f20746865207a65726f206164646044820152637265737360e01b6064820152608401610744565b611e35838383612285565b611e40600082611bf5565b6001600160a01b0383166000908152600360205260408120805460019290611e69908490612ce3565b90915550506001600160a01b0382166000908152600360205260408120805460019290611e97908490612cfa565b909155505060008181526002602052604080822080546001600160a01b0319166001600160a01b0386811691821790925591518493918716917fddf252ad1be2c89b69c2b068fc378daa952ba7f163c4a11628f55a4df523b3ef91a4505050565b610e6082826040518060200160405280600081525061233d565b6000611f1d60085490565b905060005b8381101561158757611f3883610d1e8385612cfa565b80611f4281612e2a565b915050611f22565b600a80546001600160a01b038381166001600160a01b0319831681179093556040519116919082907f8be0079c531659141344cd1fd0a4f28419497f9722a3daafe3b4186f6b6457e090600090a35050565b816001600160a01b0316836001600160a01b03161415611ffe5760405162461bcd60e51b815260206004820152601960248201527f4552433732313a20617070726f766520746f2063616c6c6572000000000000006044820152606401610744565b6001600160a01b03838116600081815260056020908152604080832094871680845294825291829020805460ff191686151590811790915591519182527f17307eab39ab6107e8899845ad3d59bd9653f200f220920489ca2b5937696c31910160405180910390a3505050565b612076848484611d4d565b61208284848484612370565b6115875760405162461bcd60e51b815260040161074490612ebd565b6060816120c25750506040805180820190915260018152600360fc1b602082015290565b8160005b81156120ec57806120d681612e2a565b91506120e59050600a83612e7a565b91506120c6565b60008167ffffffffffffffff811115612107576121076128e2565b6040519080825280601f01601f191660200182016040528015612131576020820181803683370190505b5090505b8415611d4557612146600183612ce3565b9150612153600a86612f0f565b61215e906030612cfa565b60f81b81838151811061217357612173612d12565b60200101906001600160f81b031916908160001a905350612195600a86612e7a565b9450612135565b6060600c80546107ec90612c12565b6060600d80546107ec90612c12565b60606121c582611bd8565b6122295760405162461bcd60e51b815260206004820152602f60248201527f4552433732314d657461646174613a2055524920717565727920666f72206e6f60448201526e3732bc34b9ba32b73a103a37b5b2b760891b6064820152608401610744565b600061223361219c565b90506000815111612253576040518060200160405280600081525061227e565b8061225d8461209e565b60405160200161226e929190612e8e565b6040516020818303038152906040525b9392505050565b6001600160a01b0383166122e0576122db81600880546000838152600960205260408120829055600182018355919091527ff3f7a9fe364faab93b216da50a3214154f22a0a2b415b23a84c8169e8b636ee30155565b612303565b816001600160a01b0316836001600160a01b03161461230357612303838261247d565b6001600160a01b03821661231a57610a088161251a565b826001600160a01b0316826001600160a01b031614610a0857610a0882826125c9565b612347838361260d565b6123546000848484612370565b610a085760405162461bcd60e51b815260040161074490612ebd565b60006001600160a01b0384163b1561247257604051630a85bd0160e11b81526001600160a01b0385169063150b7a02906123b4903390899088908890600401612f23565b602060405180830381600087803b1580156123ce57600080fd5b505af19250505080156123fe575060408051601f3d908101601f191682019092526123fb91810190612f60565b60015b612458573d80801561242c576040519150601f19603f3d011682016040523d82523d6000602084013e612431565b606091505b5080516124505760405162461bcd60e51b815260040161074490612ebd565b805181602001fd5b6001600160e01b031916630a85bd0160e11b149050611d45565b506001949350505050565b6000600161248a846110c8565b6124949190612ce3565b6000838152600760205260409020549091508082146124e7576001600160a01b03841660009081526006602090815260408083208584528252808320548484528184208190558352600790915290208190555b5060009182526007602090815260408084208490556001600160a01b039094168352600681528383209183525290812055565b60085460009061252c90600190612ce3565b6000838152600960205260408120546008805493945090928490811061255457612554612d12565b90600052602060002001549050806008838154811061257557612575612d12565b60009182526020808320909101929092558281526009909152604080822084905585825281205560088054806125ad576125ad612f7d565b6001900381819060005260206000200160009055905550505050565b60006125d4836110c8565b6001600160a01b039093166000908152600660209081526040808320868452825280832085905593825260079052919091209190915550565b6001600160a01b0382166126635760405162461bcd60e51b815260206004820181905260248201527f4552433732313a206d696e7420746f20746865207a65726f20616464726573736044820152606401610744565b61266c81611bd8565b156126b95760405162461bcd60e51b815260206004820152601c60248201527f4552433732313a20746f6b656e20616c7265616479206d696e746564000000006044820152606401610744565b6126c560008383612285565b6001600160a01b03821660009081526003602052604081208054600192906126ee908490612cfa565b909155505060008181526002602052604080822080546001600160a01b0319166001600160a01b03861690811790915590518392907fddf252ad1be2c89b69c2b068fc378daa952ba7f163c4a11628f55a4df523b3ef908290a45050565b82805461275890612c12565b90600052602060002090601f01602090048101928261277a57600085556127c0565b82601f1061279357805160ff19168380011785556127c0565b828001600101855582156127c0579182015b828111156127c05782518255916020019190600101906127a5565b506127cc9291506127d0565b5090565b5b808211156127cc57600081556001016127d1565b6001600160e01b031981168114611ab857600080fd5b60006020828403121561280d57600080fd5b813561227e816127e5565b60005b8381101561283357818101518382015260200161281b565b838111156115875750506000910152565b6000815180845261285c816020860160208601612818565b601f01601f19169290920160200192915050565b60208152600061227e6020830184612844565b60006020828403121561289557600080fd5b5035919050565b80356001600160a01b03811681146128b357600080fd5b919050565b600080604083850312156128cb57600080fd5b6128d48361289c565b946020939093013593505050565b634e487b7160e01b600052604160045260246000fd5b600067ffffffffffffffff80841115612913576129136128e2565b604051601f8501601f19908116603f0116810190828211818310171561293b5761293b6128e2565b8160405280935085815286868601111561295457600080fd5b858560208301376000602087830101525050509392505050565b600082601f83011261297f57600080fd5b61227e838335602085016128f8565b600080604083850312156129a157600080fd5b82359150602083013567ffffffffffffffff8111156129bf57600080fd5b6129cb8582860161296e565b9150509250929050565b6000806000606084860312156129ea57600080fd5b6129f38461289c565b9250612a016020850161289c565b9150604084013590509250925092565b634e487b7160e01b600052602160045260246000fd5b6020810160038310612a4957634e487b7160e01b600052602160045260246000fd5b91905290565b600060208284031215612a6157600080fd5b813567ffffffffffffffff811115612a7857600080fd5b611d458482850161296e565b600060208284031215612a9657600080fd5b61227e8261289c565b6020808252825182820181905260009190848201906040850190845b81811015612ad757835183529284019291840191600101612abb565b50909695505050505050565b60008060408385031215612af657600080fd5b612aff8361289c565b915060208301358015158114612b1457600080fd5b809150509250929050565b60008060008060808587031215612b3557600080fd5b612b3e8561289c565b9350612b4c6020860161289c565b925060408501359150606085013567ffffffffffffffff811115612b6f57600080fd5b8501601f81018713612b8057600080fd5b612b8f878235602084016128f8565b91505092959194509250565b60008060408385031215612bae57600080fd5b612bb78361289c565b9150612bc56020840161289c565b90509250929050565b60208082526024908201527f53616c65206d7573742062652061637469766520746f206765742074686520706040820152637269636560e01b606082015260800190565b600181811c90821680612c2657607f821691505b6020821081141561124157634e487b7160e01b600052602260045260246000fd5b6020808252818101527f4f776e61626c653a2063616c6c6572206973206e6f7420746865206f776e6572604082015260600190565b60208082526031908201527f4552433732313a207472616e736665722063616c6c6572206973206e6f74206f6040820152701ddb995c881b9bdc88185c1c1c9bdd9959607a1b606082015260800190565b634e487b7160e01b600052601160045260246000fd5b600082821015612cf557612cf5612ccd565b500390565b60008219821115612d0d57612d0d612ccd565b500190565b634e487b7160e01b600052603260045260246000fd5b6020808252818101527f53616c65206d7573742062652061637469766520746f206d696e742065676773604082015260600190565b6020808252602c908201527f4e6f7420656e6f756768204672696767696e204567677320666f72207468697360408201526b20616d6f756e74206d61746560a01b606082015260800190565b6020808252602a908201527f596f75207265616368656420746865206d6178696d756d20616d6f756e7420666040820152696f72206d696e74696e6760b01b606082015260800190565b60208082526019908201527f496e636f727265637420616d6f756e74206f6620457468657200000000000000604082015260600190565b6000600019821415612e3e57612e3e612ccd565b5060010190565b6000816000190483118215151615612e5f57612e5f612ccd565b500290565b634e487b7160e01b600052601260045260246000fd5b600082612e8957612e89612e64565b500490565b60008351612ea0818460208801612818565b835190830190612eb4818360208801612818565b01949350505050565b60208082526032908201527f4552433732313a207472616e7366657220746f206e6f6e20455243373231526560408201527131b2b4bb32b91034b6b83632b6b2b73a32b960711b606082015260800190565b600082612f1e57612f1e612e64565b500690565b6001600160a01b0385811682528416602082015260408101839052608060608201819052600090612f5690830184612844565b9695505050505050565b600060208284031215612f7257600080fd5b815161227e816127e5565b634e487b7160e01b600052603160045260246000fdfea26469706673582212200b57c129e537e450a39cf462d84c99f5f1514f88161921b7c1a7da923e1fc3a664736f6c63430008090033",
  "bytecodeSha1": "12d1a648629fc6c78ee53f11a58ab0ae68825c1a",
  "compiler": {
    "evm_version": "istanbul",
    "optimizer": {
      "enabled": true,
      "runs": 200
    },
    "version": "0.8.9+commit.e5eed63a"
  },
  "contractName": "FrigginEggs",
  "language": "Solidity",
  "natspec": {
    "kind": "dev",
    "methods": {
      "approve(address,uint256)": {
        "details": "See {IERC721-approve}."
      },
      "balanceOf(address)": {
        "details": "See {IERC721-balanceOf}."
      },
      "getApproved(uint256)": {
        "details": "See {IERC721-getApproved}."
      },
      "isApprovedForAll(address,address)": {
        "details": "See {IERC721-isApprovedForAll}."
      },
      "name()": {
        "details": "See {IERC721Metadata-name}."
      },
      "owner()": {
        "details": "Returns the address of the current owner."
      },
      "ownerOf(uint256)": {
        "details": "See {IERC721-ownerOf}."
      },
      "renounceOwnership()": {
        "details": "Leaves the contract without owner. It will not be possible to call `onlyOwner` functions anymore. Can only be called by the current owner. NOTE: Renouncing ownership will leave the contract without an owner, thereby removing any functionality that is only available to the owner."
      },
      "safeTransferFrom(address,address,uint256)": {
        "details": "See {IERC721-safeTransferFrom}."
      },
      "safeTransferFrom(address,address,uint256,bytes)": {
        "details": "See {IERC721-safeTransferFrom}."
      },
      "setApprovalForAll(address,bool)": {
        "details": "See {IERC721-setApprovalForAll}."
      },
      "setTokenURI(uint256,string)": {
        "details": "Sets `_tokenURI` as the tokenURI of `tokenId`. Requirements: - `tokenId` must exist."
      },
      "supportsInterface(bytes4)": {
        "details": "See {IERC165-supportsInterface}."
      },
      "symbol()": {
        "details": "See {IERC721Metadata-symbol}."
      },
      "tokenByIndex(uint256)": {
        "details": "See {IERC721Enumerable-tokenByIndex}."
      },
      "tokenOfOwnerByIndex(address,uint256)": {
        "details": "See {IERC721Enumerable-tokenOfOwnerByIndex}."
      },
      "tokenURI(uint256)": {
        "details": "See {IERC721Metadata-tokenURI}."
      },
      "totalSupply()": {
        "details": "See {IERC721Enumerable-totalSupply}."
      },
      "transferFrom(address,address,uint256)": {
        "details": "See {IERC721-transferFrom}."
      },
      "transferOwnership(address)": {
        "details": "Transfers ownership of the contract to a new account (`newOwner`). Can only be called by the current owner."
      }
    },
    "version": 1
  },
  "opcodes": "PUSH1 0x80 PUSH1 0x40 MSTORE PUSH1 0x4 CALLDATASIZE LT PUSH2 0x246 JUMPI PUSH1 0x0 CALLDATALOAD PUSH1 0xE0 SHR DUP1 PUSH4 0x70A08231 GT PUSH2 0x139 JUMPI DUP1 PUSH4 0xC39CBEF1 GT PUSH2 0xB6 JUMPI DUP1 PUSH4 0xDE6A06ED GT PUSH2 0x7A JUMPI DUP1 PUSH4 0xDE6A06ED EQ PUSH2 0x651 JUMPI DUP1 PUSH4 0xE7C76E29 EQ PUSH2 0x671 JUMPI DUP1 PUSH4 0xE985E9C5 EQ PUSH2 0x686 JUMPI DUP1 PUSH4 0xEBCBB946 EQ PUSH2 0x6CF JUMPI DUP1 PUSH4 0xF2FDE38B EQ PUSH2 0x6E4 JUMPI DUP1 PUSH4 0xFBF442C4 EQ PUSH2 0x704 JUMPI PUSH1 0x0 DUP1 REVERT JUMPDEST DUP1 PUSH4 0xC39CBEF1 EQ PUSH2 0x5B1 JUMPI DUP1 PUSH4 0xC3BB8C64 EQ PUSH2 0x5D1 JUMPI DUP1 PUSH4 0xC87B56DD EQ PUSH2 0x5F1 JUMPI DUP1 PUSH4 0xD31F1C29 EQ PUSH2 0x611 JUMPI DUP1 PUSH4 0xD34C3D18 EQ PUSH2 0x631 JUMPI PUSH1 0x0 DUP1 REVERT JUMPDEST DUP1 PUSH4 0x95D89B41 GT PUSH2 0xFD JUMPI DUP1 PUSH4 0x95D89B41 EQ PUSH2 0x527 JUMPI DUP1 PUSH4 0xA22CB465 EQ PUSH2 0x53C JUMPI DUP1 PUSH4 0xAC5F6061 EQ PUSH2 0x55C JUMPI DUP1 PUSH4 0xB07D29E4 EQ PUSH2 0x57C JUMPI DUP1 PUSH4 0xB88D4FDE EQ PUSH2 0x591 JUMPI PUSH1 0x0 DUP1 REVERT JUMPDEST DUP1 PUSH4 0x70A08231 EQ PUSH2 0x49F JUMPI DUP1 PUSH4 0x715018A6 EQ PUSH2 0x4BF JUMPI DUP1 PUSH4 0x8462151C EQ PUSH2 0x4D4 JUMPI DUP1 PUSH4 0x853828B6 EQ PUSH2 0x501 JUMPI DUP1 PUSH4 0x8DA5CB5B EQ PUSH2 0x509 JUMPI PUSH1 0x0 DUP1 REVERT JUMPDEST DUP1 PUSH4 0x3740BCC9 GT PUSH2 0x1C7 JUMPI DUP1 PUSH4 0x55F804B3 GT PUSH2 0x18B JUMPI DUP1 PUSH4 0x55F804B3 EQ PUSH2 0x43A JUMPI DUP1 PUSH4 0x5D0E5D0B EQ PUSH2 0x45A JUMPI DUP1 PUSH4 0x5DFB870E EQ PUSH2 0x462 JUMPI DUP1 PUSH4 0x6352211E EQ PUSH2 0x46A JUMPI DUP1 PUSH4 0x653E1155 EQ PUSH2 0x48A JUMPI PUSH1 0x0 DUP1 REVERT JUMPDEST DUP1 PUSH4 0x3740BCC9 EQ PUSH2 0x3A9 JUMPI DUP1 PUSH4 0x3FE2D3B1 EQ PUSH2 0x3BE JUMPI DUP1 PUSH4 0x42842E0E EQ PUSH2 0x3D3 JUMPI DUP1 PUSH4 0x4F6CCCE7 EQ PUSH2 0x3F3 JUMPI DUP1 PUSH4 0x52731E8F EQ PUSH2 0x413 JUMPI PUSH1 0x0 DUP1 REVERT JUMPDEST DUP1 PUSH4 0x12DB1F05 GT PUSH2 0x20E JUMPI DUP1 PUSH4 0x12DB1F05 EQ PUSH2 0x31F JUMPI DUP1 PUSH4 0x162094C4 EQ PUSH2 0x334 JUMPI DUP1 PUSH4 0x18160DDD EQ PUSH2 0x354 JUMPI DUP1 PUSH4 0x23B872DD EQ PUSH2 0x369 JUMPI DUP1 PUSH4 0x2F745C59 EQ PUSH2 0x389 JUMPI PUSH1 0x0 DUP1 REVERT JUMPDEST DUP1 PUSH4 0x14B4F0B EQ PUSH2 0x24B JUMPI DUP1 PUSH4 0x1FFC9A7 EQ PUSH2 0x273 JUMPI DUP1 PUSH4 0x6FDDE03 EQ PUSH2 0x2A3 JUMPI DUP1 PUSH4 0x81812FC EQ PUSH2 0x2C5 JUMPI DUP1 PUSH4 0x95EA7B3 EQ PUSH2 0x2FD JUMPI JUMPDEST PUSH1 0x0 DUP1 REVERT JUMPDEST CALLVALUE DUP1 ISZERO PUSH2 0x257 JUMPI PUSH1 0x0 DUP1 REVERT JUMPDEST POP PUSH2 0x260 PUSH2 0x70C JUMP JUMPDEST PUSH1 0x40 MLOAD SWAP1 DUP2 MSTORE PUSH1 0x20 ADD JUMPDEST PUSH1 0x40 MLOAD DUP1 SWAP2 SUB SWAP1 RETURN JUMPDEST CALLVALUE DUP1 ISZERO PUSH2 0x27F JUMPI PUSH1 0x0 DUP1 REVERT JUMPDEST POP PUSH2 0x293 PUSH2 0x28E CALLDATASIZE PUSH1 0x4 PUSH2 0x27FB JUMP JUMPDEST PUSH2 0x7B2 JUMP JUMPDEST PUSH1 0x40 MLOAD SWAP1 ISZERO ISZERO DUP2 MSTORE PUSH1 0x20 ADD PUSH2 0x26A JUMP JUMPDEST CALLVALUE DUP1 ISZERO PUSH2 0x2AF JUMPI PUSH1 0x0 DUP1 REVERT JUMPDEST POP PUSH2 0x2B8 PUSH2 0x7DD JUMP JUMPDEST PUSH1 0x40 MLOAD PUSH2 0x26A SWAP2 SWAP1 PUSH2 0x2870 JUMP JUMPDEST CALLVALUE DUP1 ISZERO PUSH2 0x2D1 JUMPI PUSH1 0x0 DUP1 REVERT JUMPDEST POP PUSH2 0x2E5 PUSH2 0x2E0 CALLDATASIZE PUSH1 0x4 PUSH2 0x2883 JUMP JUMPDEST PUSH2 0x86F JUMP JUMPDEST PUSH1 0x40 MLOAD PUSH1 0x1 PUSH1 0x1 PUSH1 0xA0 SHL SUB SWAP1 SWAP2 AND DUP2 MSTORE PUSH1 0x20 ADD PUSH2 0x26A JUMP JUMPDEST CALLVALUE DUP1 ISZERO PUSH2 0x309 JUMPI PUSH1 0x0 DUP1 REVERT JUMPDEST POP PUSH2 0x31D PUSH2 0x318 CALLDATASIZE PUSH1 0x4 PUSH2 0x28B8 JUMP JUMPDEST PUSH2 0x8F7 JUMP JUMPDEST STOP JUMPDEST CALLVALUE DUP1 ISZERO PUSH2 0x32B JUMPI PUSH1 0x0 DUP1 REVERT JUMPDEST POP PUSH2 0x31D PUSH2 0xA0D JUMP JUMPDEST CALLVALUE DUP1 ISZERO PUSH2 0x340 JUMPI PUSH1 0x0 DUP1 REVERT JUMPDEST POP PUSH2 0x31D PUSH2 0x34F CALLDATASIZE PUSH1 0x4 PUSH2 0x298E JUMP JUMPDEST PUSH2 0xA4E JUMP JUMPDEST CALLVALUE DUP1 ISZERO PUSH2 0x360 JUMPI PUSH1 0x0 DUP1 REVERT JUMPDEST POP PUSH1 0x8 SLOAD PUSH2 0x260 JUMP JUMPDEST CALLVALUE DUP1 ISZERO PUSH2 0x375 JUMPI PUSH1 0x0 DUP1 REVERT JUMPDEST POP PUSH2 0x31D PUSH2 0x384 CALLDATASIZE PUSH1 0x4 PUSH2 0x29D5 JUMP JUMPDEST PUSH2 0xB03 JUMP JUMPDEST CALLVALUE DUP1 ISZERO PUSH2 0x395 JUMPI PUSH1 0x0 DUP1 REVERT JUMPDEST POP PUSH2 0x260 PUSH2 0x3A4 CALLDATASIZE PUSH1 0x4 PUSH2 0x28B8 JUMP JUMPDEST PUSH2 0xB34 JUMP JUMPDEST CALLVALUE DUP1 ISZERO PUSH2 0x3B5 JUMPI PUSH1 0x0 DUP1 REVERT JUMPDEST POP PUSH2 0x31D PUSH2 0xBCA JUMP JUMPDEST CALLVALUE DUP1 ISZERO PUSH2 0x3CA JUMPI PUSH1 0x0 DUP1 REVERT JUMPDEST POP PUSH2 0x31D PUSH2 0xD37 JUMP JUMPDEST CALLVALUE DUP1 ISZERO PUSH2 0x3DF JUMPI PUSH1 0x0 DUP1 REVERT JUMPDEST POP PUSH2 0x31D PUSH2 0x3EE CALLDATASIZE PUSH1 0x4 PUSH2 0x29D5 JUMP JUMPDEST PUSH2 0xD75 JUMP JUMPDEST CALLVALUE DUP1 ISZERO PUSH2 0x3FF JUMPI PUSH1 0x0 DUP1 REVERT JUMPDEST POP PUSH2 0x260 PUSH2 0x40E CALLDATASIZE PUSH1 0x4 PUSH2 0x2883 JUMP JUMPDEST PUSH2 0xD90 JUMP JUMPDEST CALLVALUE DUP1 ISZERO PUSH2 0x41F JUMPI PUSH1 0x0 DUP1 REVERT JUMPDEST POP PUSH1 0x13 SLOAD PUSH2 0x42D SWAP1 PUSH1 0xFF AND DUP2 JUMP JUMPDEST PUSH1 0x40 MLOAD PUSH2 0x26A SWAP2 SWAP1 PUSH2 0x2A27 JUMP JUMPDEST CALLVALUE DUP1 ISZERO PUSH2 0x446 JUMPI PUSH1 0x0 DUP1 REVERT JUMPDEST POP PUSH2 0x31D PUSH2 0x455 CALLDATASIZE PUSH1 0x4 PUSH2 0x2A4F JUMP JUMPDEST PUSH2 0xE23 JUMP JUMPDEST PUSH2 0x31D PUSH2 0xE64 JUMP JUMPDEST PUSH2 0x31D PUSH2 0xF3D JUMP JUMPDEST CALLVALUE DUP1 ISZERO PUSH2 0x476 JUMPI PUSH1 0x0 DUP1 REVERT JUMPDEST POP PUSH2 0x2E5 PUSH2 0x485 CALLDATASIZE PUSH1 0x4 PUSH2 0x2883 JUMP JUMPDEST PUSH2 0x1014 JUMP JUMPDEST CALLVALUE DUP1 ISZERO PUSH2 0x496 JUMPI PUSH1 0x0 DUP1 REVERT JUMPDEST POP PUSH2 0x31D PUSH2 0x108B JUMP JUMPDEST CALLVALUE DUP1 ISZERO PUSH2 0x4AB JUMPI PUSH1 0x0 DUP1 REVERT JUMPDEST POP PUSH2 0x260 PUSH2 0x4BA CALLDATASIZE PUSH1 0x4 PUSH2 0x2A84 JUMP JUMPDEST PUSH2 0x10C8 JUMP JUMPDEST CALLVALUE DUP1 ISZERO PUSH2 0x4CB JUMPI PUSH1 0x0 DUP1 REVERT JUMPDEST POP PUSH2 0x31D PUSH2 0x114F JUMP JUMPDEST CALLVALUE DUP1 ISZERO PUSH2 0x4E0 JUMPI PUSH1 0x0 DUP1 REVERT JUMPDEST POP PUSH2 0x4F4 PUSH2 0x4EF CALLDATASIZE PUSH1 0x4 PUSH2 0x2A84 JUMP JUMPDEST PUSH2 0x1183 JUMP JUMPDEST PUSH1 0x40 MLOAD PUSH2 0x26A SWAP2 SWAP1 PUSH2 0x2A9F JUMP JUMPDEST PUSH2 0x31D PUSH2 0x1247 JUMP JUMPDEST CALLVALUE DUP1 ISZERO PUSH2 0x515 JUMPI PUSH1 0x0 DUP1 REVERT JUMPDEST POP PUSH1 0xA SLOAD PUSH1 0x1 PUSH1 0x1 PUSH1 0xA0 SHL SUB AND PUSH2 0x2E5 JUMP JUMPDEST CALLVALUE DUP1 ISZERO PUSH2 0x533 JUMPI PUSH1 0x0 DUP1 REVERT JUMPDEST POP PUSH2 0x2B8 PUSH2 0x13C7 JUMP JUMPDEST CALLVALUE DUP1 ISZERO PUSH2 0x548 JUMPI PUSH1 0x0 DUP1 REVERT JUMPDEST POP PUSH2 0x31D PUSH2 0x557 CALLDATASIZE PUSH1 0x4 PUSH2 0x2AE3 JUMP JUMPDEST PUSH2 0x13D6 JUMP JUMPDEST CALLVALUE DUP1 ISZERO PUSH2 0x568 JUMPI PUSH1 0x0 DUP1 REVERT JUMPDEST POP PUSH2 0x31D PUSH2 0x577 CALLDATASIZE PUSH1 0x4 PUSH2 0x28B8 JUMP JUMPDEST PUSH2 0x13E1 JUMP JUMPDEST CALLVALUE DUP1 ISZERO PUSH2 0x588 JUMPI PUSH1 0x0 DUP1 REVERT JUMPDEST POP PUSH2 0x260 PUSH2 0x14C5 JUMP JUMPDEST CALLVALUE DUP1 ISZERO PUSH2 0x59D JUMPI PUSH1 0x0 DUP1 REVERT JUMPDEST POP PUSH2 0x31D PUSH2 0x5AC CALLDATASIZE PUSH1 0x4 PUSH2 0x2B1F JUMP JUMPDEST PUSH2 0x1555 JUMP JUMPDEST CALLVALUE DUP1 ISZERO PUSH2 0x5BD JUMPI PUSH1 0x0 DUP1 REVERT JUMPDEST POP PUSH2 0x31D PUSH2 0x5CC CALLDATASIZE PUSH1 0x4 PUSH2 0x298E JUMP JUMPDEST PUSH2 0x158D JUMP JUMPDEST CALLVALUE DUP1 ISZERO PUSH2 0x5DD JUMPI PUSH1 0x0 DUP1 REVERT JUMPDEST POP PUSH2 0x31D PUSH2 0x5EC CALLDATASIZE PUSH1 0x4 PUSH2 0x2A4F JUMP JUMPDEST PUSH2 0x160C JUMP JUMPDEST CALLVALUE DUP1 ISZERO PUSH2 0x5FD JUMPI PUSH1 0x0 DUP1 REVERT JUMPDEST POP PUSH2 0x2B8 PUSH2 0x60C CALLDATASIZE PUSH1 0x4 PUSH2 0x2883 JUMP JUMPDEST PUSH2 0x1649 JUMP JUMPDEST CALLVALUE DUP1 ISZERO PUSH2 0x61D JUMPI PUSH1 0x0 DUP1 REVERT JUMPDEST POP PUSH2 0x2B8 PUSH2 0x62C CALLDATASIZE PUSH1 0x4 PUSH2 0x2883 JUMP JUMPDEST PUSH2 0x1853 JUMP JUMPDEST CALLVALUE DUP1 ISZERO PUSH2 0x63D JUMPI PUSH1 0x0 DUP1 REVERT JUMPDEST POP PUSH2 0x2B8 PUSH2 0x64C CALLDATASIZE PUSH1 0x4 PUSH2 0x2883 JUMP JUMPDEST PUSH2 0x18ED JUMP JUMPDEST CALLVALUE DUP1 ISZERO PUSH2 0x65D JUMPI PUSH1 0x0 DUP1 REVERT JUMPDEST POP PUSH2 0x31D PUSH2 0x66C CALLDATASIZE PUSH1 0x4 PUSH2 0x298E JUMP JUMPDEST PUSH2 0x1906 JUMP JUMPDEST CALLVALUE DUP1 ISZERO PUSH2 0x67D JUMPI PUSH1 0x0 DUP1 REVERT JUMPDEST POP PUSH2 0x2B8 PUSH2 0x1985 JUMP JUMPDEST CALLVALUE DUP1 ISZERO PUSH2 0x692 JUMPI PUSH1 0x0 DUP1 REVERT JUMPDEST POP PUSH2 0x293 PUSH2 0x6A1 CALLDATASIZE PUSH1 0x4 PUSH2 0x2B9B JUMP JUMPDEST PUSH1 0x1 PUSH1 0x1 PUSH1 0xA0 SHL SUB SWAP2 DUP3 AND PUSH1 0x0 SWAP1 DUP2 MSTORE PUSH1 0x5 PUSH1 0x20 SWAP1 DUP2 MSTORE PUSH1 0x40 DUP1 DUP4 KECCAK256 SWAP4 SWAP1 SWAP5 AND DUP3 MSTORE SWAP2 SWAP1 SWAP2 MSTORE KECCAK256 SLOAD PUSH1 0xFF AND SWAP1 JUMP JUMPDEST CALLVALUE DUP1 ISZERO PUSH2 0x6DB JUMPI PUSH1 0x0 DUP1 REVERT JUMPDEST POP PUSH2 0x260 PUSH2 0x1992 JUMP JUMPDEST CALLVALUE DUP1 ISZERO PUSH2 0x6F0 JUMPI PUSH1 0x0 DUP1 REVERT JUMPDEST POP PUSH2 0x31D PUSH2 0x6FF CALLDATASIZE PUSH1 0x4 PUSH2 0x2A84 JUMP JUMPDEST PUSH2 0x1A20 JUMP JUMPDEST PUSH2 0x31D PUSH2 0x1ABB JUMP JUMPDEST PUSH1 0x0 DUP1 PUSH1 0x13 SLOAD PUSH1 0xFF AND PUSH1 0x2 DUP2 GT ISZERO PUSH2 0x726 JUMPI PUSH2 0x726 PUSH2 0x2A11 JUMP JUMPDEST EQ ISZERO PUSH2 0x74D JUMPI PUSH1 0x40 MLOAD PUSH3 0x461BCD PUSH1 0xE5 SHL DUP2 MSTORE PUSH1 0x4 ADD PUSH2 0x744 SWAP1 PUSH2 0x2BCE JUMP JUMPDEST PUSH1 0x40 MLOAD DUP1 SWAP2 SUB SWAP1 REVERT JUMPDEST PUSH1 0x1 PUSH1 0x13 SLOAD PUSH1 0xFF AND PUSH1 0x2 DUP2 GT ISZERO PUSH2 0x766 JUMPI PUSH2 0x766 PUSH2 0x2A11 JUMP JUMPDEST EQ ISZERO PUSH2 0x779 JUMPI POP PUSH8 0x17FB16D83BE0000 SWAP1 JUMP JUMPDEST PUSH1 0x2 PUSH1 0x13 SLOAD PUSH1 0xFF AND PUSH1 0x2 DUP2 GT ISZERO PUSH2 0x792 JUMPI PUSH2 0x792 PUSH2 0x2A11 JUMP JUMPDEST EQ ISZERO PUSH2 0x7A5 JUMPI POP PUSH8 0x1DF9DC8E4AD8000 SWAP1 JUMP JUMPDEST POP PUSH8 0x1DF9DC8E4AD8000 SWAP1 JUMP JUMPDEST PUSH1 0x0 PUSH1 0x1 PUSH1 0x1 PUSH1 0xE0 SHL SUB NOT DUP3 AND PUSH4 0x780E9D63 PUSH1 0xE0 SHL EQ DUP1 PUSH2 0x7D7 JUMPI POP PUSH2 0x7D7 DUP3 PUSH2 0x1B88 JUMP JUMPDEST SWAP3 SWAP2 POP POP JUMP JUMPDEST PUSH1 0x60 PUSH1 0x0 DUP1 SLOAD PUSH2 0x7EC SWAP1 PUSH2 0x2C12 JUMP JUMPDEST DUP1 PUSH1 0x1F ADD PUSH1 0x20 DUP1 SWAP2 DIV MUL PUSH1 0x20 ADD PUSH1 0x40 MLOAD SWAP1 DUP2 ADD PUSH1 0x40 MSTORE DUP1 SWAP3 SWAP2 SWAP1 DUP2 DUP2 MSTORE PUSH1 0x20 ADD DUP3 DUP1 SLOAD PUSH2 0x818 SWAP1 PUSH2 0x2C12 JUMP JUMPDEST DUP1 ISZERO PUSH2 0x865 JUMPI DUP1 PUSH1 0x1F LT PUSH2 0x83A JUMPI PUSH2 0x100 DUP1 DUP4 SLOAD DIV MUL DUP4 MSTORE SWAP2 PUSH1 0x20 ADD SWAP2 PUSH2 0x865 JUMP JUMPDEST DUP3 ADD SWAP2 SWAP1 PUSH1 0x0 MSTORE PUSH1 0x20 PUSH1 0x0 KECCAK256 SWAP1 JUMPDEST DUP2 SLOAD DUP2 MSTORE SWAP1 PUSH1 0x1 ADD SWAP1 PUSH1 0x20 ADD DUP1 DUP4 GT PUSH2 0x848 JUMPI DUP3 SWAP1 SUB PUSH1 0x1F AND DUP3 ADD SWAP2 JUMPDEST POP POP POP POP POP SWAP1 POP SWAP1 JUMP JUMPDEST PUSH1 0x0 PUSH2 0x87A DUP3 PUSH2 0x1BD8 JUMP JUMPDEST PUSH2 0x8DB JUMPI PUSH1 0x40 MLOAD PUSH3 0x461BCD PUSH1 0xE5 SHL DUP2 MSTORE PUSH1 0x20 PUSH1 0x4 DUP3 ADD MSTORE PUSH1 0x2C PUSH1 0x24 DUP3 ADD MSTORE PUSH32 0x4552433732313A20617070726F76656420717565727920666F72206E6F6E6578 PUSH1 0x44 DUP3 ADD MSTORE PUSH12 0x34B9BA32B73A103A37B5B2B7 PUSH1 0xA1 SHL PUSH1 0x64 DUP3 ADD MSTORE PUSH1 0x84 ADD PUSH2 0x744 JUMP JUMPDEST POP PUSH1 0x0 SWAP1 DUP2 MSTORE PUSH1 0x4 PUSH1 0x20 MSTORE PUSH1 0x40 SWAP1 KECCAK256 SLOAD PUSH1 0x1 PUSH1 0x1 PUSH1 0xA0 SHL SUB AND SWAP1 JUMP JUMPDEST PUSH1 0x0 PUSH2 0x902 DUP3 PUSH2 0x1014 JUMP JUMPDEST SWAP1 POP DUP1 PUSH1 0x1 PUSH1 0x1 PUSH1 0xA0 SHL SUB AND DUP4 PUSH1 0x1 PUSH1 0x1 PUSH1 0xA0 SHL SUB AND EQ ISZERO PUSH2 0x970 JUMPI PUSH1 0x40 MLOAD PUSH3 0x461BCD PUSH1 0xE5 SHL DUP2 MSTORE PUSH1 0x20 PUSH1 0x4 DUP3 ADD MSTORE PUSH1 0x21 PUSH1 0x24 DUP3 ADD MSTORE PUSH32 0x4552433732313A20617070726F76616C20746F2063757272656E74206F776E65 PUSH1 0x44 DUP3 ADD MSTORE PUSH1 0x39 PUSH1 0xF9 SHL PUSH1 0x64 DUP3 ADD MSTORE PUSH1 0x84 ADD PUSH2 0x744 JUMP JUMPDEST CALLER PUSH1 0x1 PUSH1 0x1 PUSH1 0xA0 SHL SUB DUP3 AND EQ DUP1 PUSH2 0x98C JUMPI POP PUSH2 0x98C DUP2 CALLER PUSH2 0x6A1 JUMP JUMPDEST PUSH2 0x9FE JUMPI PUSH1 0x40 MLOAD PUSH3 0x461BCD PUSH1 0xE5 SHL DUP2 MSTORE PUSH1 0x20 PUSH1 0x4 DUP3 ADD MSTORE PUSH1 0x38 PUSH1 0x24 DUP3 ADD MSTORE PUSH32 0x4552433732313A20617070726F76652063616C6C6572206973206E6F74206F77 PUSH1 0x44 DUP3 ADD MSTORE PUSH32 0x6E6572206E6F7220617070726F76656420666F7220616C6C0000000000000000 PUSH1 0x64 DUP3 ADD MSTORE PUSH1 0x84 ADD PUSH2 0x744 JUMP JUMPDEST PUSH2 0xA08 DUP4 DUP4 PUSH2 0x1BF5 JUMP JUMPDEST POP POP POP JUMP JUMPDEST PUSH1 0xA SLOAD PUSH1 0x1 PUSH1 0x1 PUSH1 0xA0 SHL SUB AND CALLER EQ PUSH2 0xA37 JUMPI PUSH1 0x40 MLOAD PUSH3 0x461BCD PUSH1 0xE5 SHL DUP2 MSTORE PUSH1 0x4 ADD PUSH2 0x744 SWAP1 PUSH2 0x2C47 JUMP JUMPDEST PUSH1 0x13 DUP1 SLOAD PUSH1 0x0 SWAP2 SWAP1 PUSH1 0xFF NOT AND PUSH1 0x1 DUP4 JUMPDEST MUL OR SWAP1 SSTORE POP JUMP JUMPDEST PUSH1 0xA SLOAD PUSH1 0x1 PUSH1 0x1 PUSH1 0xA0 SHL SUB AND CALLER EQ PUSH2 0xA78 JUMPI PUSH1 0x40 MLOAD PUSH3 0x461BCD PUSH1 0xE5 SHL DUP2 MSTORE PUSH1 0x4 ADD PUSH2 0x744 SWAP1 PUSH2 0x2C47 JUMP JUMPDEST PUSH2 0xA81 DUP3 PUSH2 0x1BD8 JUMP JUMPDEST PUSH2 0xAE4 JUMPI PUSH1 0x40 MLOAD PUSH3 0x461BCD PUSH1 0xE5 SHL DUP2 MSTORE PUSH1 0x20 PUSH1 0x4 DUP3 ADD MSTORE PUSH1 0x2E PUSH1 0x24 DUP3 ADD MSTORE PUSH32 0x45524337323155524953746F726167653A2055524920736574206F66206E6F6E PUSH1 0x44 DUP3 ADD MSTORE PUSH14 0x32BC34B9BA32B73A103A37B5B2B7 PUSH1 0x91 SHL PUSH1 0x64 DUP3 ADD MSTORE PUSH1 0x84 ADD PUSH2 0x744 JUMP JUMPDEST PUSH1 0x0 DUP3 DUP2 MSTORE PUSH1 0xB PUSH1 0x20 SWAP1 DUP2 MSTORE PUSH1 0x40 SWAP1 SWAP2 KECCAK256 DUP3 MLOAD PUSH2 0xA08 SWAP3 DUP5 ADD SWAP1 PUSH2 0x274C JUMP JUMPDEST PUSH2 0xB0D CALLER DUP3 PUSH2 0x1C63 JUMP JUMPDEST PUSH2 0xB29 JUMPI PUSH1 0x40 MLOAD PUSH3 0x461BCD PUSH1 0xE5 SHL DUP2 MSTORE PUSH1 0x4 ADD PUSH2 0x744 SWAP1 PUSH2 0x2C7C JUMP JUMPDEST PUSH2 0xA08 DUP4 DUP4 DUP4 PUSH2 0x1D4D JUMP JUMPDEST PUSH1 0x0 PUSH2 0xB3F DUP4 PUSH2 0x10C8 JUMP JUMPDEST DUP3 LT PUSH2 0xBA1 JUMPI PUSH1 0x40 MLOAD PUSH3 0x461BCD PUSH1 0xE5 SHL DUP2 MSTORE PUSH1 0x20 PUSH1 0x4 DUP3 ADD MSTORE PUSH1 0x2B PUSH1 0x24 DUP3 ADD MSTORE PUSH32 0x455243373231456E756D657261626C653A206F776E657220696E646578206F75 PUSH1 0x44 DUP3 ADD MSTORE PUSH11 0x74206F6620626F756E6473 PUSH1 0xA8 SHL PUSH1 0x64 DUP3 ADD MSTORE PUSH1 0x84 ADD PUSH2 0x744 JUMP JUMPDEST POP PUSH1 0x1 PUSH1 0x1 PUSH1 0xA0 SHL SUB SWAP2 SWAP1 SWAP2 AND PUSH1 0x0 SWAP1 DUP2 MSTORE PUSH1 0x6 PUSH1 0x20 SWAP1 DUP2 MSTORE PUSH1 0x40 DUP1 DUP4 KECCAK256 SWAP4 DUP4 MSTORE SWAP3 SWAP1 MSTORE KECCAK256 SLOAD SWAP1 JUMP JUMPDEST PUSH1 0x0 PUSH1 0x13 SLOAD PUSH1 0xFF AND PUSH1 0x2 DUP2 GT ISZERO PUSH2 0xBE3 JUMPI PUSH2 0xBE3 PUSH2 0x2A11 JUMP JUMPDEST EQ ISZERO PUSH2 0xC3F JUMPI PUSH1 0x40 MLOAD PUSH3 0x461BCD PUSH1 0xE5 SHL DUP2 MSTORE PUSH1 0x20 PUSH1 0x4 DUP3 ADD MSTORE PUSH1 0x25 PUSH1 0x24 DUP3 ADD MSTORE PUSH32 0x53616C65206D7573742062652061637469766520746F206D696E742046726565 PUSH1 0x44 DUP3 ADD MSTORE PUSH5 0x2065676773 PUSH1 0xD8 SHL PUSH1 0x64 DUP3 ADD MSTORE PUSH1 0x84 ADD PUSH2 0x744 JUMP JUMPDEST PUSH1 0x1 PUSH1 0x11 SLOAD LT ISZERO PUSH2 0xC92 JUMPI PUSH1 0x40 MLOAD PUSH3 0x461BCD PUSH1 0xE5 SHL DUP2 MSTORE PUSH1 0x20 PUSH1 0x4 DUP3 ADD MSTORE PUSH1 0x1B PUSH1 0x24 DUP3 ADD MSTORE PUSH32 0x4E6F206D6F72652046726565204567677320617661696C61626C650000000000 PUSH1 0x44 DUP3 ADD MSTORE PUSH1 0x64 ADD PUSH2 0x744 JUMP JUMPDEST PUSH1 0x10 SLOAD PUSH1 0x12 SLOAD PUSH2 0xCA2 SWAP2 SWAP1 PUSH2 0x2CE3 JUMP JUMPDEST PUSH1 0x8 SLOAD PUSH2 0xCB0 SWAP1 PUSH1 0x1 PUSH2 0x2CFA JUMP JUMPDEST GT ISZERO PUSH2 0xCBB JUMPI PUSH1 0x0 DUP1 REVERT JUMPDEST PUSH2 0xCC4 CALLER PUSH2 0x10C8 JUMP JUMPDEST ISZERO PUSH2 0xD11 JUMPI PUSH1 0x40 MLOAD PUSH3 0x461BCD PUSH1 0xE5 SHL DUP2 MSTORE PUSH1 0x20 PUSH1 0x4 DUP3 ADD MSTORE PUSH1 0x1E PUSH1 0x24 DUP3 ADD MSTORE PUSH32 0x596F7520616C726561647920686176652061204672696767696E204567670000 PUSH1 0x44 DUP3 ADD MSTORE PUSH1 0x64 ADD PUSH2 0x744 JUMP JUMPDEST PUSH2 0xD23 CALLER PUSH2 0xD1E PUSH1 0x8 SLOAD SWAP1 JUMP JUMPDEST PUSH2 0x1EF8 JUMP JUMPDEST PUSH1 0x1 PUSH1 0x11 SLOAD PUSH2 0xD32 SWAP2 SWAP1 PUSH2 0x2CE3 JUMP JUMPDEST PUSH1 0x11 SSTORE JUMP JUMPDEST PUSH1 0xA SLOAD PUSH1 0x1 PUSH1 0x1 PUSH1 0xA0 SHL SUB AND CALLER EQ PUSH2 0xD61 JUMPI PUSH1 0x40 MLOAD PUSH3 0x461BCD PUSH1 0xE5 SHL DUP2 MSTORE PUSH1 0x4 ADD PUSH2 0x744 SWAP1 PUSH2 0x2C47 JUMP JUMPDEST PUSH1 0x13 DUP1 SLOAD PUSH1 0x2 SWAP2 SWAP1 PUSH1 0xFF NOT AND PUSH1 0x1 DUP4 PUSH2 0xA47 JUMP JUMPDEST PUSH2 0xA08 DUP4 DUP4 DUP4 PUSH1 0x40 MLOAD DUP1 PUSH1 0x20 ADD PUSH1 0x40 MSTORE DUP1 PUSH1 0x0 DUP2 MSTORE POP PUSH2 0x1555 JUMP JUMPDEST PUSH1 0x0 PUSH2 0xD9B PUSH1 0x8 SLOAD SWAP1 JUMP JUMPDEST DUP3 LT PUSH2 0xDFE JUMPI PUSH1 0x40 MLOAD PUSH3 0x461BCD PUSH1 0xE5 SHL DUP2 MSTORE PUSH1 0x20 PUSH1 0x4 DUP3 ADD MSTORE PUSH1 0x2C PUSH1 0x24 DUP3 ADD MSTORE PUSH32 0x455243373231456E756D657261626C653A20676C6F62616C20696E646578206F PUSH1 0x44 DUP3 ADD MSTORE PUSH12 0x7574206F6620626F756E6473 PUSH1 0xA0 SHL PUSH1 0x64 DUP3 ADD MSTORE PUSH1 0x84 ADD PUSH2 0x744 JUMP JUMPDEST PUSH1 0x8 DUP3 DUP2 SLOAD DUP2 LT PUSH2 0xE11 JUMPI PUSH2 0xE11 PUSH2 0x2D12 JUMP JUMPDEST SWAP1 PUSH1 0x0 MSTORE PUSH1 0x20 PUSH1 0x0 KECCAK256 ADD SLOAD SWAP1 POP SWAP2 SWAP1 POP JUMP JUMPDEST PUSH1 0xA SLOAD PUSH1 0x1 PUSH1 0x1 PUSH1 0xA0 SHL SUB AND CALLER EQ PUSH2 0xE4D JUMPI PUSH1 0x40 MLOAD PUSH3 0x461BCD PUSH1 0xE5 SHL DUP2 MSTORE PUSH1 0x4 ADD PUSH2 0x744 SWAP1 PUSH2 0x2C47 JUMP JUMPDEST DUP1 MLOAD PUSH2 0xE60 SWAP1 PUSH1 0xC SWAP1 PUSH1 0x20 DUP5 ADD SWAP1 PUSH2 0x274C JUMP JUMPDEST POP POP JUMP JUMPDEST PUSH1 0x0 PUSH1 0x13 SLOAD PUSH1 0xFF AND PUSH1 0x2 DUP2 GT ISZERO PUSH2 0xE7D JUMPI PUSH2 0xE7D PUSH2 0x2A11 JUMP JUMPDEST EQ ISZERO PUSH2 0xE9B JUMPI PUSH1 0x40 MLOAD PUSH3 0x461BCD PUSH1 0xE5 SHL DUP2 MSTORE PUSH1 0x4 ADD PUSH2 0x744 SWAP1 PUSH2 0x2D28 JUMP JUMPDEST PUSH1 0x10 SLOAD PUSH1 0x12 SLOAD PUSH2 0xEAB SWAP2 SWAP1 PUSH2 0x2CE3 JUMP JUMPDEST PUSH1 0x8 SLOAD PUSH2 0xEB9 SWAP1 PUSH1 0xA PUSH2 0x2CFA JUMP JUMPDEST GT ISZERO PUSH2 0xED7 JUMPI PUSH1 0x40 MLOAD PUSH3 0x461BCD PUSH1 0xE5 SHL DUP2 MSTORE PUSH1 0x4 ADD PUSH2 0x744 SWAP1 PUSH2 0x2D5D JUMP JUMPDEST PUSH2 0xEE3 PUSH1 0x9 PUSH1 0xF PUSH2 0x2CE3 JUMP JUMPDEST PUSH2 0xEEC CALLER PUSH2 0x10C8 JUMP JUMPDEST LT PUSH2 0xF09 JUMPI PUSH1 0x40 MLOAD PUSH3 0x461BCD PUSH1 0xE5 SHL DUP2 MSTORE PUSH1 0x4 ADD PUSH2 0x744 SWAP1 PUSH2 0x2DA9 JUMP JUMPDEST CALLVALUE PUSH2 0xF12 PUSH2 0x14C5 JUMP JUMPDEST GT ISZERO PUSH2 0xF30 JUMPI PUSH1 0x40 MLOAD PUSH3 0x461BCD PUSH1 0xE5 SHL DUP2 MSTORE PUSH1 0x4 ADD PUSH2 0x744 SWAP1 PUSH2 0x2DF3 JUMP JUMPDEST PUSH2 0xF3B PUSH1 0xA CALLER PUSH2 0x1F12 JUMP JUMPDEST JUMP JUMPDEST PUSH1 0x0 PUSH1 0x13 SLOAD PUSH1 0xFF AND PUSH1 0x2 DUP2 GT ISZERO PUSH2 0xF56 JUMPI PUSH2 0xF56 PUSH2 0x2A11 JUMP JUMPDEST EQ ISZERO PUSH2 0xF74 JUMPI PUSH1 0x40 MLOAD PUSH3 0x461BCD PUSH1 0xE5 SHL DUP2 MSTORE PUSH1 0x4 ADD PUSH2 0x744 SWAP1 PUSH2 0x2D28 JUMP JUMPDEST PUSH1 0x10 SLOAD PUSH1 0x12 SLOAD PUSH2 0xF84 SWAP2 SWAP1 PUSH2 0x2CE3 JUMP JUMPDEST PUSH1 0x8 SLOAD PUSH2 0xF92 SWAP1 PUSH1 0x3 PUSH2 0x2CFA JUMP JUMPDEST GT ISZERO PUSH2 0xFB0 JUMPI PUSH1 0x40 MLOAD PUSH3 0x461BCD PUSH1 0xE5 SHL DUP2 MSTORE PUSH1 0x4 ADD PUSH2 0x744 SWAP1 PUSH2 0x2D5D JUMP JUMPDEST PUSH2 0xFBC PUSH1 0x2 PUSH1 0xF PUSH2 0x2CE3 JUMP JUMPDEST PUSH2 0xFC5 CALLER PUSH2 0x10C8 JUMP JUMPDEST LT PUSH2 0xFE2 JUMPI PUSH1 0x40 MLOAD PUSH3 0x461BCD PUSH1 0xE5 SHL DUP2 MSTORE PUSH1 0x4 ADD PUSH2 0x744 SWAP1 PUSH2 0x2DA9 JUMP JUMPDEST CALLVALUE PUSH2 0xFEB PUSH2 0x70C JUMP JUMPDEST GT ISZERO PUSH2 0x1009 JUMPI PUSH1 0x40 MLOAD PUSH3 0x461BCD PUSH1 0xE5 SHL DUP2 MSTORE PUSH1 0x4 ADD PUSH2 0x744 SWAP1 PUSH2 0x2DF3 JUMP JUMPDEST PUSH2 0xF3B PUSH1 0x3 CALLER PUSH2 0x1F12 JUMP JUMPDEST PUSH1 0x0 DUP2 DUP2 MSTORE PUSH1 0x2 PUSH1 0x20 MSTORE PUSH1 0x40 DUP2 KECCAK256 SLOAD PUSH1 0x1 PUSH1 0x1 PUSH1 0xA0 SHL SUB AND DUP1 PUSH2 0x7D7 JUMPI PUSH1 0x40 MLOAD PUSH3 0x461BCD PUSH1 0xE5 SHL DUP2 MSTORE PUSH1 0x20 PUSH1 0x4 DUP3 ADD MSTORE PUSH1 0x29 PUSH1 0x24 DUP3 ADD MSTORE PUSH32 0x4552433732313A206F776E657220717565727920666F72206E6F6E6578697374 PUSH1 0x44 DUP3 ADD MSTORE PUSH9 0x32B73A103A37B5B2B7 PUSH1 0xB9 SHL PUSH1 0x64 DUP3 ADD MSTORE PUSH1 0x84 ADD PUSH2 0x744 JUMP JUMPDEST PUSH1 0xA SLOAD PUSH1 0x1 PUSH1 0x1 PUSH1 0xA0 SHL SUB AND CALLER EQ PUSH2 0x10B5 JUMPI PUSH1 0x40 MLOAD PUSH3 0x461BCD PUSH1 0xE5 SHL DUP2 MSTORE PUSH1 0x4 ADD PUSH2 0x744 SWAP1 PUSH2 0x2C47 JUMP JUMPDEST PUSH1 0x13 DUP1 SLOAD PUSH1 0x1 SWAP2 SWAP1 PUSH1 0xFF NOT AND DUP3 DUP1 PUSH2 0xA47 JUMP JUMPDEST PUSH1 0x0 PUSH1 0x1 PUSH1 0x1 PUSH1 0xA0 SHL SUB DUP3 AND PUSH2 0x1133 JUMPI PUSH1 0x40 MLOAD PUSH3 0x461BCD PUSH1 0xE5 SHL DUP2 MSTORE PUSH1 0x20 PUSH1 0x4 DUP3 ADD MSTORE PUSH1 0x2A PUSH1 0x24 DUP3 ADD MSTORE PUSH32 0x4552433732313A2062616C616E636520717565727920666F7220746865207A65 PUSH1 0x44 DUP3 ADD MSTORE PUSH10 0x726F2061646472657373 PUSH1 0xB0 SHL PUSH1 0x64 DUP3 ADD MSTORE PUSH1 0x84 ADD PUSH2 0x744 JUMP JUMPDEST POP PUSH1 0x1 PUSH1 0x1 PUSH1 0xA0 SHL SUB AND PUSH1 0x0 SWAP1 DUP2 MSTORE PUSH1 0x3 PUSH1 0x20 MSTORE PUSH1 0x40 SWAP1 KECCAK256 SLOAD SWAP1 JUMP JUMPDEST PUSH1 0xA SLOAD PUSH1 0x1 PUSH1 0x1 PUSH1 0xA0 SHL SUB AND CALLER EQ PUSH2 0x1179 JUMPI PUSH1 0x40 MLOAD PUSH3 0x461BCD PUSH1 0xE5 SHL DUP2 MSTORE PUSH1 0x4 ADD PUSH2 0x744 SWAP1 PUSH2 0x2C47 JUMP JUMPDEST PUSH2 0xF3B PUSH1 0x0 PUSH2 0x1F4A JUMP JUMPDEST PUSH1 0x60 PUSH1 0x0 PUSH2 0x1190 DUP4 PUSH2 0x10C8 JUMP JUMPDEST SWAP1 POP DUP1 ISZERO PUSH2 0x122B JUMPI PUSH1 0x0 DUP2 PUSH8 0xFFFFFFFFFFFFFFFF DUP2 GT ISZERO PUSH2 0x11B3 JUMPI PUSH2 0x11B3 PUSH2 0x28E2 JUMP JUMPDEST PUSH1 0x40 MLOAD SWAP1 DUP1 DUP3 MSTORE DUP1 PUSH1 0x20 MUL PUSH1 0x20 ADD DUP3 ADD PUSH1 0x40 MSTORE DUP1 ISZERO PUSH2 0x11DC JUMPI DUP2 PUSH1 0x20 ADD PUSH1 0x20 DUP3 MUL DUP1 CALLDATASIZE DUP4 CALLDATACOPY ADD SWAP1 POP JUMPDEST POP SWAP1 POP PUSH1 0x0 JUMPDEST DUP3 DUP2 LT ISZERO PUSH2 0x1223 JUMPI PUSH2 0x11F4 DUP6 DUP3 PUSH2 0xB34 JUMP JUMPDEST DUP3 DUP3 DUP2 MLOAD DUP2 LT PUSH2 0x1206 JUMPI PUSH2 0x1206 PUSH2 0x2D12 JUMP JUMPDEST PUSH1 0x20 SWAP1 DUP2 MUL SWAP2 SWAP1 SWAP2 ADD ADD MSTORE DUP1 PUSH2 0x121B DUP2 PUSH2 0x2E2A JUMP JUMPDEST SWAP2 POP POP PUSH2 0x11E2 JUMP JUMPDEST POP SWAP4 SWAP3 POP POP POP JUMP JUMPDEST PUSH1 0x40 DUP1 MLOAD PUSH1 0x0 DUP1 DUP3 MSTORE PUSH1 0x20 DUP3 ADD SWAP1 SWAP3 MSTORE SWAP1 PUSH2 0x1223 JUMP JUMPDEST POP SWAP2 SWAP1 POP JUMP JUMPDEST PUSH1 0xA SLOAD PUSH1 0x1 PUSH1 0x1 PUSH1 0xA0 SHL SUB AND CALLER EQ PUSH2 0x1271 JUMPI PUSH1 0x40 MLOAD PUSH3 0x461BCD PUSH1 0xE5 SHL DUP2 MSTORE PUSH1 0x4 ADD PUSH2 0x744 SWAP1 PUSH2 0x2C47 JUMP JUMPDEST PUSH1 0x0 PUSH1 0x64 PUSH2 0x1280 SELFBALANCE PUSH1 0x1D PUSH2 0x2E45 JUMP JUMPDEST PUSH2 0x128A SWAP2 SWAP1 PUSH2 0x2E7A JUMP JUMPDEST SWAP1 POP PUSH1 0x0 PUSH1 0x64 PUSH2 0x129B SELFBALANCE PUSH1 0x9 PUSH2 0x2E45 JUMP JUMPDEST PUSH2 0x12A5 SWAP2 SWAP1 PUSH2 0x2E7A JUMP JUMPDEST PUSH1 0x40 MLOAD SWAP1 SWAP2 POP PUSH20 0x1F2A9EC7F7B2DC4491E0206C65E8AB8F4B4C3C3F SWAP1 DUP4 ISZERO PUSH2 0x8FC MUL SWAP1 DUP5 SWAP1 PUSH1 0x0 DUP2 DUP2 DUP2 DUP6 DUP9 DUP9 CALL SWAP4 POP POP POP POP PUSH2 0x12E1 JUMPI PUSH1 0x0 DUP1 REVERT JUMPDEST PUSH1 0x40 MLOAD PUSH20 0x8F2EB78F0895BC4F93B6E65462CB2458035EE817 SWAP1 DUP4 ISZERO PUSH2 0x8FC MUL SWAP1 DUP5 SWAP1 PUSH1 0x0 DUP2 DUP2 DUP2 DUP6 DUP9 DUP9 CALL SWAP4 POP POP POP POP PUSH2 0x131A JUMPI PUSH1 0x0 DUP1 REVERT JUMPDEST PUSH1 0x40 MLOAD PUSH20 0x4C11FA301E246A32C4276B38BE2BB689C0BA4BAC SWAP1 DUP4 ISZERO PUSH2 0x8FC MUL SWAP1 DUP5 SWAP1 PUSH1 0x0 DUP2 DUP2 DUP2 DUP6 DUP9 DUP9 CALL SWAP4 POP POP POP POP PUSH2 0x1353 JUMPI PUSH1 0x0 DUP1 REVERT JUMPDEST PUSH1 0x40 MLOAD PUSH20 0xDCE642CC913D21A2EE3C67CBD63C22A00A20CD5F SWAP1 DUP3 ISZERO PUSH2 0x8FC MUL SWAP1 DUP4 SWAP1 PUSH1 0x0 DUP2 DUP2 DUP2 DUP6 DUP9 DUP9 CALL SWAP4 POP POP POP POP PUSH2 0x138C JUMPI PUSH1 0x0 DUP1 REVERT JUMPDEST PUSH1 0x40 MLOAD SELFBALANCE SWAP1 PUSH20 0x2E70F672A7F9D9F45CF622965303EAB428B6DF04 SWAP1 DUP3 ISZERO PUSH2 0x8FC MUL SWAP1 DUP4 SWAP1 PUSH1 0x0 DUP2 DUP2 DUP2 DUP6 DUP9 DUP9 CALL SWAP4 POP POP POP POP PUSH2 0xA08 JUMPI PUSH1 0x0 DUP1 REVERT JUMPDEST PUSH1 0x60 PUSH1 0x1 DUP1 SLOAD PUSH2 0x7EC SWAP1 PUSH2 0x2C12 JUMP JUMPDEST PUSH2 0xE60 CALLER DUP4 DUP4 PUSH2 0x1F9C JUMP JUMPDEST PUSH1 0xA SLOAD PUSH1 0x1 PUSH1 0x1 PUSH1 0xA0 SHL SUB AND CALLER EQ PUSH2 0x140B JUMPI PUSH1 0x40 MLOAD PUSH3 0x461BCD PUSH1 0xE5 SHL DUP2 MSTORE PUSH1 0x4 ADD PUSH2 0x744 SWAP1 PUSH2 0x2C47 JUMP JUMPDEST PUSH1 0x0 PUSH2 0x1416 PUSH1 0x8 SLOAD SWAP1 JUMP JUMPDEST SWAP1 POP PUSH1 0x0 DUP3 GT DUP1 ISZERO PUSH2 0x142A JUMPI POP PUSH1 0x10 SLOAD DUP3 GT ISZERO JUMPDEST PUSH2 0x1482 JUMPI PUSH1 0x40 MLOAD PUSH3 0x461BCD PUSH1 0xE5 SHL DUP2 MSTORE PUSH1 0x20 PUSH1 0x4 DUP3 ADD MSTORE PUSH1 0x23 PUSH1 0x24 DUP3 ADD MSTORE PUSH32 0x4E6F7420656E6F7567682065676773206C65667420696E207468652072657365 PUSH1 0x44 DUP3 ADD MSTORE PUSH3 0x727665 PUSH1 0xE8 SHL PUSH1 0x64 DUP3 ADD MSTORE PUSH1 0x84 ADD PUSH2 0x744 JUMP JUMPDEST PUSH1 0x0 JUMPDEST DUP3 DUP2 LT ISZERO PUSH2 0x14AD JUMPI PUSH2 0x149B DUP5 PUSH2 0xD1E DUP4 DUP6 PUSH2 0x2CFA JUMP JUMPDEST DUP1 PUSH2 0x14A5 DUP2 PUSH2 0x2E2A JUMP JUMPDEST SWAP2 POP POP PUSH2 0x1485 JUMP JUMPDEST POP PUSH1 0x1 PUSH1 0x10 SLOAD PUSH2 0x14BD SWAP2 SWAP1 PUSH2 0x2CE3 JUMP JUMPDEST PUSH1 0x10 SSTORE POP POP POP JUMP JUMPDEST PUSH1 0x0 DUP1 PUSH1 0x13 SLOAD PUSH1 0xFF AND PUSH1 0x2 DUP2 GT ISZERO PUSH2 0x14DF JUMPI PUSH2 0x14DF PUSH2 0x2A11 JUMP JUMPDEST EQ ISZERO PUSH2 0x14FD JUMPI PUSH1 0x40 MLOAD PUSH3 0x461BCD PUSH1 0xE5 SHL DUP2 MSTORE PUSH1 0x4 ADD PUSH2 0x744 SWAP1 PUSH2 0x2BCE JUMP JUMPDEST PUSH1 0x1 PUSH1 0x13 SLOAD PUSH1 0xFF AND PUSH1 0x2 DUP2 GT ISZERO PUSH2 0x1516 JUMPI PUSH2 0x1516 PUSH2 0x2A11 JUMP JUMPDEST EQ ISZERO PUSH2 0x1529 JUMPI POP PUSH8 0x470DE4DF8200000 SWAP1 JUMP JUMPDEST PUSH1 0x2 PUSH1 0x13 SLOAD PUSH1 0xFF AND PUSH1 0x2 DUP2 GT ISZERO PUSH2 0x1542 JUMPI PUSH2 0x1542 PUSH2 0x2A11 JUMP JUMPDEST EQ ISZERO PUSH2 0x7A5 JUMPI POP PUSH8 0x58D15E176280000 SWAP1 JUMP JUMPDEST PUSH2 0x155F CALLER DUP4 PUSH2 0x1C63 JUMP JUMPDEST PUSH2 0x157B JUMPI PUSH1 0x40 MLOAD PUSH3 0x461BCD PUSH1 0xE5 SHL DUP2 MSTORE PUSH1 0x4 ADD PUSH2 0x744 SWAP1 PUSH2 0x2C7C JUMP JUMPDEST PUSH2 0x1587 DUP5 DUP5 DUP5 DUP5 PUSH2 0x206B JUMP JUMPDEST POP POP POP POP JUMP JUMPDEST CALLER PUSH2 0x1597 DUP4 PUSH2 0x1014 JUMP JUMPDEST PUSH1 0x1 PUSH1 0x1 PUSH1 0xA0 SHL SUB AND EQ PUSH2 0x15ED JUMPI PUSH1 0x40 MLOAD PUSH3 0x461BCD PUSH1 0xE5 SHL DUP2 MSTORE PUSH1 0x20 PUSH1 0x4 DUP3 ADD MSTORE PUSH1 0x1E PUSH1 0x24 DUP3 ADD MSTORE PUSH32 0x596F7520646F206E6F74206F776E2074686973204672696767696E4567670000 PUSH1 0x44 DUP3 ADD MSTORE PUSH1 0x64 ADD PUSH2 0x744 JUMP JUMPDEST PUSH1 0x0 DUP3 DUP2 MSTORE PUSH1 0xE PUSH1 0x20 SWAP1 DUP2 MSTORE PUSH1 0x40 SWAP1 SWAP2 KECCAK256 DUP3 MLOAD PUSH2 0xA08 SWAP3 DUP5 ADD SWAP1 PUSH2 0x274C JUMP JUMPDEST PUSH1 0xA SLOAD PUSH1 0x1 PUSH1 0x1 PUSH1 0xA0 SHL SUB AND CALLER EQ PUSH2 0x1636 JUMPI PUSH1 0x40 MLOAD PUSH3 0x461BCD PUSH1 0xE5 SHL DUP2 MSTORE PUSH1 0x4 ADD PUSH2 0x744 SWAP1 PUSH2 0x2C47 JUMP JUMPDEST DUP1 MLOAD PUSH2 0xE60 SWAP1 PUSH1 0xD SWAP1 PUSH1 0x20 DUP5 ADD SWAP1 PUSH2 0x274C JUMP JUMPDEST PUSH1 0x60 PUSH2 0x1654 DUP3 PUSH2 0x1BD8 JUMP JUMPDEST PUSH2 0x16BA JUMPI PUSH1 0x40 MLOAD PUSH3 0x461BCD PUSH1 0xE5 SHL DUP2 MSTORE PUSH1 0x20 PUSH1 0x4 DUP3 ADD MSTORE PUSH1 0x31 PUSH1 0x24 DUP3 ADD MSTORE PUSH32 0x45524337323155524953746F726167653A2055524920717565727920666F7220 PUSH1 0x44 DUP3 ADD MSTORE PUSH17 0x3737B732BC34B9BA32B73A103A37B5B2B7 PUSH1 0x79 SHL PUSH1 0x64 DUP3 ADD MSTORE PUSH1 0x84 ADD PUSH2 0x744 JUMP JUMPDEST PUSH1 0x0 DUP3 DUP2 MSTORE PUSH1 0xB PUSH1 0x20 MSTORE PUSH1 0x40 DUP2 KECCAK256 DUP1 SLOAD PUSH2 0x16D3 SWAP1 PUSH2 0x2C12 JUMP JUMPDEST DUP1 PUSH1 0x1F ADD PUSH1 0x20 DUP1 SWAP2 DIV MUL PUSH1 0x20 ADD PUSH1 0x40 MLOAD SWAP1 DUP2 ADD PUSH1 0x40 MSTORE DUP1 SWAP3 SWAP2 SWAP1 DUP2 DUP2 MSTORE PUSH1 0x20 ADD DUP3 DUP1 SLOAD PUSH2 0x16FF SWAP1 PUSH2 0x2C12 JUMP JUMPDEST DUP1 ISZERO PUSH2 0x174C JUMPI DUP1 PUSH1 0x1F LT PUSH2 0x1721 JUMPI PUSH2 0x100 DUP1 DUP4 SLOAD DIV MUL DUP4 MSTORE SWAP2 PUSH1 0x20 ADD SWAP2 PUSH2 0x174C JUMP JUMPDEST DUP3 ADD SWAP2 SWAP1 PUSH1 0x0 MSTORE PUSH1 0x20 PUSH1 0x0 KECCAK256 SWAP1 JUMPDEST DUP2 SLOAD DUP2 MSTORE SWAP1 PUSH1 0x1 ADD SWAP1 PUSH1 0x20 ADD DUP1 DUP4 GT PUSH2 0x172F JUMPI DUP3 SWAP1 SUB PUSH1 0x1F AND DUP3 ADD SWAP2 JUMPDEST POP POP POP POP POP SWAP1 POP DUP1 MLOAD PUSH1 0x0 EQ ISZERO PUSH2 0x1769 JUMPI PUSH2 0x1766 DUP4 PUSH2 0x209E JUMP JUMPDEST SWAP1 POP JUMPDEST PUSH1 0x0 PUSH2 0x1773 PUSH2 0x219C JUMP JUMPDEST SWAP1 POP PUSH1 0x0 PUSH2 0x177F PUSH2 0x21AB JUMP JUMPDEST SWAP1 POP DUP2 MLOAD PUSH1 0x0 EQ DUP1 ISZERO PUSH2 0x1791 JUMPI POP DUP1 MLOAD ISZERO JUMPDEST ISZERO PUSH2 0x179F JUMPI POP SWAP1 SWAP4 SWAP3 POP POP POP JUMP JUMPDEST DUP2 MLOAD ISZERO DUP1 ISZERO PUSH2 0x17AF JUMPI POP PUSH1 0x0 DUP2 MLOAD GT JUMPDEST ISZERO PUSH2 0x17E0 JUMPI DUP3 DUP2 PUSH1 0x40 MLOAD PUSH1 0x20 ADD PUSH2 0x17C7 SWAP3 SWAP2 SWAP1 PUSH2 0x2E8E JUMP JUMPDEST PUSH1 0x40 MLOAD PUSH1 0x20 DUP2 DUP4 SUB SUB DUP2 MSTORE SWAP1 PUSH1 0x40 MSTORE SWAP4 POP POP POP POP SWAP2 SWAP1 POP JUMP JUMPDEST PUSH1 0x0 DUP3 MLOAD GT DUP1 ISZERO PUSH2 0x17F0 JUMPI POP DUP1 MLOAD ISZERO JUMPDEST ISZERO PUSH2 0x1808 JUMPI DUP2 DUP4 PUSH1 0x40 MLOAD PUSH1 0x20 ADD PUSH2 0x17C7 SWAP3 SWAP2 SWAP1 PUSH2 0x2E8E JUMP JUMPDEST DUP3 MLOAD ISZERO PUSH2 0x1841 JUMPI DUP2 DUP4 PUSH1 0x40 MLOAD PUSH1 0x20 ADD PUSH2 0x1822 SWAP3 SWAP2 SWAP1 PUSH2 0x2E8E JUMP JUMPDEST PUSH1 0x40 DUP1 MLOAD PUSH1 0x1F NOT DUP2 DUP5 SUB ADD DUP2 MSTORE SWAP1 DUP3 SWAP1 MSTORE PUSH2 0x17C7 SWAP2 DUP4 SWAP1 PUSH1 0x20 ADD PUSH2 0x2E8E JUMP JUMPDEST PUSH2 0x184A DUP6 PUSH2 0x21BA JUMP JUMPDEST SWAP6 SWAP5 POP POP POP POP POP JUMP JUMPDEST PUSH1 0xE PUSH1 0x20 MSTORE PUSH1 0x0 SWAP1 DUP2 MSTORE PUSH1 0x40 SWAP1 KECCAK256 DUP1 SLOAD PUSH2 0x186C SWAP1 PUSH2 0x2C12 JUMP JUMPDEST DUP1 PUSH1 0x1F ADD PUSH1 0x20 DUP1 SWAP2 DIV MUL PUSH1 0x20 ADD PUSH1 0x40 MLOAD SWAP1 DUP2 ADD PUSH1 0x40 MSTORE DUP1 SWAP3 SWAP2 SWAP1 DUP2 DUP2 MSTORE PUSH1 0x20 ADD DUP3 DUP1 SLOAD PUSH2 0x1898 SWAP1 PUSH2 0x2C12 JUMP JUMPDEST DUP1 ISZERO PUSH2 0x18E5 JUMPI DUP1 PUSH1 0x1F LT PUSH2 0x18BA JUMPI PUSH2 0x100 DUP1 DUP4 SLOAD DIV MUL DUP4 MSTORE SWAP2 PUSH1 0x20 ADD SWAP2 PUSH2 0x18E5 JUMP JUMPDEST DUP3 ADD SWAP2 SWAP1 PUSH1 0x0 MSTORE PUSH1 0x20 PUSH1 0x0 KECCAK256 SWAP1 JUMPDEST DUP2 SLOAD DUP2 MSTORE SWAP1 PUSH1 0x1 ADD SWAP1 PUSH1 0x20 ADD DUP1 DUP4 GT PUSH2 0x18C8 JUMPI DUP3 SWAP1 SUB PUSH1 0x1F AND DUP3 ADD SWAP2 JUMPDEST POP POP POP POP POP DUP2 JUMP JUMPDEST PUSH1 0xF PUSH1 0x20 MSTORE PUSH1 0x0 SWAP1 DUP2 MSTORE PUSH1 0x40 SWAP1 KECCAK256 DUP1 SLOAD PUSH2 0x186C SWAP1 PUSH2 0x2C12 JUMP JUMPDEST CALLER PUSH2 0x1910 DUP4 PUSH2 0x1014 JUMP JUMPDEST PUSH1 0x1 PUSH1 0x1 PUSH1 0xA0 SHL SUB AND EQ PUSH2 0x1966 JUMPI PUSH1 0x40 MLOAD PUSH3 0x461BCD PUSH1 0xE5 SHL DUP2 MSTORE PUSH1 0x20 PUSH1 0x4 DUP3 ADD MSTORE PUSH1 0x1E PUSH1 0x24 DUP3 ADD MSTORE PUSH32 0x596F7520646F206E6F74206F776E2074686973204672696767696E4567670000 PUSH1 0x44 DUP3 ADD MSTORE PUSH1 0x64 ADD PUSH2 0x744 JUMP JUMPDEST PUSH1 0x0 DUP3 DUP2 MSTORE PUSH1 0xF PUSH1 0x20 SWAP1 DUP2 MSTORE PUSH1 0x40 SWAP1 SWAP2 KECCAK256 DUP3 MLOAD PUSH2 0xA08 SWAP3 DUP5 ADD SWAP1 PUSH2 0x274C JUMP JUMPDEST PUSH1 0xD DUP1 SLOAD PUSH2 0x186C SWAP1 PUSH2 0x2C12 JUMP JUMPDEST PUSH1 0x0 DUP1 PUSH1 0x13 SLOAD PUSH1 0xFF AND PUSH1 0x2 DUP2 GT ISZERO PUSH2 0x19AC JUMPI PUSH2 0x19AC PUSH2 0x2A11 JUMP JUMPDEST EQ ISZERO PUSH2 0x19CA JUMPI PUSH1 0x40 MLOAD PUSH3 0x461BCD PUSH1 0xE5 SHL DUP2 MSTORE PUSH1 0x4 ADD PUSH2 0x744 SWAP1 PUSH2 0x2BCE JUMP JUMPDEST PUSH1 0x1 PUSH1 0x13 SLOAD PUSH1 0xFF AND PUSH1 0x2 DUP2 GT ISZERO PUSH2 0x19E3 JUMPI PUSH2 0x19E3 PUSH2 0x2A11 JUMP JUMPDEST EQ ISZERO PUSH2 0x19F5 JUMPI POP PUSH7 0x8E1BC9BF040000 SWAP1 JUMP JUMPDEST PUSH1 0x2 PUSH1 0x13 SLOAD PUSH1 0xFF AND PUSH1 0x2 DUP2 GT ISZERO PUSH2 0x1A0E JUMPI PUSH2 0x1A0E PUSH2 0x2A11 JUMP JUMPDEST EQ ISZERO PUSH2 0x7A5 JUMPI POP PUSH7 0xB1A2BC2EC50000 SWAP1 JUMP JUMPDEST PUSH1 0xA SLOAD PUSH1 0x1 PUSH1 0x1 PUSH1 0xA0 SHL SUB AND CALLER EQ PUSH2 0x1A4A JUMPI PUSH1 0x40 MLOAD PUSH3 0x461BCD PUSH1 0xE5 SHL DUP2 MSTORE PUSH1 0x4 ADD PUSH2 0x744 SWAP1 PUSH2 0x2C47 JUMP JUMPDEST PUSH1 0x1 PUSH1 0x1 PUSH1 0xA0 SHL SUB DUP2 AND PUSH2 0x1AAF JUMPI PUSH1 0x40 MLOAD PUSH3 0x461BCD PUSH1 0xE5 SHL DUP2 MSTORE PUSH1 0x20 PUSH1 0x4 DUP3 ADD MSTORE PUSH1 0x26 PUSH1 0x24 DUP3 ADD MSTORE PUSH32 0x4F776E61626C653A206E6577206F776E657220697320746865207A65726F2061 PUSH1 0x44 DUP3 ADD MSTORE PUSH6 0x646472657373 PUSH1 0xD0 SHL PUSH1 0x64 DUP3 ADD MSTORE PUSH1 0x84 ADD PUSH2 0x744 JUMP JUMPDEST PUSH2 0x1AB8 DUP2 PUSH2 0x1F4A JUMP JUMPDEST POP JUMP JUMPDEST PUSH1 0x0 PUSH1 0x13 SLOAD PUSH1 0xFF AND PUSH1 0x2 DUP2 GT ISZERO PUSH2 0x1AD4 JUMPI PUSH2 0x1AD4 PUSH2 0x2A11 JUMP JUMPDEST EQ ISZERO PUSH2 0x1AF2 JUMPI PUSH1 0x40 MLOAD PUSH3 0x461BCD PUSH1 0xE5 SHL DUP2 MSTORE PUSH1 0x4 ADD PUSH2 0x744 SWAP1 PUSH2 0x2D28 JUMP JUMPDEST PUSH1 0x10 SLOAD PUSH1 0x12 SLOAD PUSH2 0x1B02 SWAP2 SWAP1 PUSH2 0x2CE3 JUMP JUMPDEST PUSH1 0x8 SLOAD PUSH2 0x1B10 SWAP1 PUSH1 0x1 PUSH2 0x2CFA JUMP JUMPDEST GT ISZERO PUSH2 0x1B2E JUMPI PUSH1 0x40 MLOAD PUSH3 0x461BCD PUSH1 0xE5 SHL DUP2 MSTORE PUSH1 0x4 ADD PUSH2 0x744 SWAP1 PUSH2 0x2D5D JUMP JUMPDEST PUSH1 0xF PUSH2 0x1B39 CALLER PUSH2 0x10C8 JUMP JUMPDEST LT PUSH2 0x1B56 JUMPI PUSH1 0x40 MLOAD PUSH3 0x461BCD PUSH1 0xE5 SHL DUP2 MSTORE PUSH1 0x4 ADD PUSH2 0x744 SWAP1 PUSH2 0x2DA9 JUMP JUMPDEST CALLVALUE PUSH2 0x1B5F PUSH2 0x1992 JUMP JUMPDEST GT ISZERO PUSH2 0x1B7D JUMPI PUSH1 0x40 MLOAD PUSH3 0x461BCD PUSH1 0xE5 SHL DUP2 MSTORE PUSH1 0x4 ADD PUSH2 0x744 SWAP1 PUSH2 0x2DF3 JUMP JUMPDEST PUSH2 0xF3B PUSH1 0x1 CALLER PUSH2 0x1F12 JUMP JUMPDEST PUSH1 0x0 PUSH1 0x1 PUSH1 0x1 PUSH1 0xE0 SHL SUB NOT DUP3 AND PUSH4 0x80AC58CD PUSH1 0xE0 SHL EQ DUP1 PUSH2 0x1BB9 JUMPI POP PUSH1 0x1 PUSH1 0x1 PUSH1 0xE0 SHL SUB NOT DUP3 AND PUSH4 0x5B5E139F PUSH1 0xE0 SHL EQ JUMPDEST DUP1 PUSH2 0x7D7 JUMPI POP PUSH4 0x1FFC9A7 PUSH1 0xE0 SHL PUSH1 0x1 PUSH1 0x1 PUSH1 0xE0 SHL SUB NOT DUP4 AND EQ PUSH2 0x7D7 JUMP JUMPDEST PUSH1 0x0 SWAP1 DUP2 MSTORE PUSH1 0x2 PUSH1 0x20 MSTORE PUSH1 0x40 SWAP1 KECCAK256 SLOAD PUSH1 0x1 PUSH1 0x1 PUSH1 0xA0 SHL SUB AND ISZERO ISZERO SWAP1 JUMP JUMPDEST PUSH1 0x0 DUP2 DUP2 MSTORE PUSH1 0x4 PUSH1 0x20 MSTORE PUSH1 0x40 SWAP1 KECCAK256 DUP1 SLOAD PUSH1 0x1 PUSH1 0x1 PUSH1 0xA0 SHL SUB NOT AND PUSH1 0x1 PUSH1 0x1 PUSH1 0xA0 SHL SUB DUP5 AND SWAP1 DUP2 OR SWAP1 SWAP2 SSTORE DUP2 SWAP1 PUSH2 0x1C2A DUP3 PUSH2 0x1014 JUMP JUMPDEST PUSH1 0x1 PUSH1 0x1 PUSH1 0xA0 SHL SUB AND PUSH32 0x8C5BE1E5EBEC7D5BD14F71427D1E84F3DD0314C0F7B2291E5B200AC8C7C3B925 PUSH1 0x40 MLOAD PUSH1 0x40 MLOAD DUP1 SWAP2 SUB SWAP1 LOG4 POP POP JUMP JUMPDEST PUSH1 0x0 PUSH2 0x1C6E DUP3 PUSH2 0x1BD8 JUMP JUMPDEST PUSH2 0x1CCF JUMPI PUSH1 0x40 MLOAD PUSH3 0x461BCD PUSH1 0xE5 SHL DUP2 MSTORE PUSH1 0x20 PUSH1 0x4 DUP3 ADD MSTORE PUSH1 0x2C PUSH1 0x24 DUP3 ADD MSTORE PUSH32 0x4552433732313A206F70657261746F7220717565727920666F72206E6F6E6578 PUSH1 0x44 DUP3 ADD MSTORE PUSH12 0x34B9BA32B73A103A37B5B2B7 PUSH1 0xA1 SHL PUSH1 0x64 DUP3 ADD MSTORE PUSH1 0x84 ADD PUSH2 0x744 JUMP JUMPDEST PUSH1 0x0 PUSH2 0x1CDA DUP4 PUSH2 0x1014 JUMP JUMPDEST SWAP1 POP DUP1 PUSH1 0x1 PUSH1 0x1 PUSH1 0xA0 SHL SUB AND DUP5 PUSH1 0x1 PUSH1 0x1 PUSH1 0xA0 SHL SUB AND EQ DUP1 PUSH2 0x1D15 JUMPI POP DUP4 PUSH1 0x1 PUSH1 0x1 PUSH1 0xA0 SHL SUB AND PUSH2 0x1D0A DUP5 PUSH2 0x86F JUMP JUMPDEST PUSH1 0x1 PUSH1 0x1 PUSH1 0xA0 SHL SUB AND EQ JUMPDEST DUP1 PUSH2 0x1D45 JUMPI POP PUSH1 0x1 PUSH1 0x1 PUSH1 0xA0 SHL SUB DUP1 DUP3 AND PUSH1 0x0 SWAP1 DUP2 MSTORE PUSH1 0x5 PUSH1 0x20 SWAP1 DUP2 MSTORE PUSH1 0x40 DUP1 DUP4 KECCAK256 SWAP4 DUP9 AND DUP4 MSTORE SWAP3 SWAP1 MSTORE KECCAK256 SLOAD PUSH1 0xFF AND JUMPDEST SWAP5 SWAP4 POP POP POP POP JUMP JUMPDEST DUP3 PUSH1 0x1 PUSH1 0x1 PUSH1 0xA0 SHL SUB AND PUSH2 0x1D60 DUP3 PUSH2 0x1014 JUMP JUMPDEST PUSH1 0x1 PUSH1 0x1 PUSH1 0xA0 SHL SUB AND EQ PUSH2 0x1DC8 JUMPI PUSH1 0x40 MLOAD PUSH3 0x461BCD PUSH1 0xE5 SHL DUP2 MSTORE PUSH1 0x20 PUSH1 0x4 DUP3 ADD MSTORE PUSH1 0x29 PUSH1 0x24 DUP3 ADD MSTORE PUSH32 0x4552433732313A207472616E73666572206F6620746F6B656E20746861742069 PUSH1 0x44 DUP3 ADD MSTORE PUSH9 0x39903737BA1037BBB7 PUSH1 0xB9 SHL PUSH1 0x64 DUP3 ADD MSTORE PUSH1 0x84 ADD PUSH2 0x744 JUMP JUMPDEST PUSH1 0x1 PUSH1 0x1 PUSH1 0xA0 SHL SUB DUP3 AND PUSH2 0x1E2A JUMPI PUSH1 0x40 MLOAD PUSH3 0x461BCD PUSH1 0xE5 SHL DUP2 MSTORE PUSH1 0x20 PUSH1 0x4 DUP3 ADD MSTORE PUSH1 0x24 DUP1 DUP3 ADD MSTORE PUSH32 0x4552433732313A207472616E7366657220746F20746865207A65726F20616464 PUSH1 0x44 DUP3 ADD MSTORE PUSH4 0x72657373 PUSH1 0xE0 SHL PUSH1 0x64 DUP3 ADD MSTORE PUSH1 0x84 ADD PUSH2 0x744 JUMP JUMPDEST PUSH2 0x1E35 DUP4 DUP4 DUP4 PUSH2 0x2285 JUMP JUMPDEST PUSH2 0x1E40 PUSH1 0x0 DUP3 PUSH2 0x1BF5 JUMP JUMPDEST PUSH1 0x1 PUSH1 0x1 PUSH1 0xA0 SHL SUB DUP4 AND PUSH1 0x0 SWAP1 DUP2 MSTORE PUSH1 0x3 PUSH1 0x20 MSTORE PUSH1 0x40 DUP2 KECCAK256 DUP1 SLOAD PUSH1 0x1 SWAP3 SWAP1 PUSH2 0x1E69 SWAP1 DUP5 SWAP1 PUSH2 0x2CE3 JUMP JUMPDEST SWAP1 SWAP2 SSTORE POP POP PUSH1 0x1 PUSH1 0x1 PUSH1 0xA0 SHL SUB DUP3 AND PUSH1 0x0 SWAP1 DUP2 MSTORE PUSH1 0x3 PUSH1 0x20 MSTORE PUSH1 0x40 DUP2 KECCAK256 DUP1 SLOAD PUSH1 0x1 SWAP3 SWAP1 PUSH2 0x1E97 SWAP1 DUP5 SWAP1 PUSH2 0x2CFA JUMP JUMPDEST SWAP1 SWAP2 SSTORE POP POP PUSH1 0x0 DUP2 DUP2 MSTORE PUSH1 0x2 PUSH1 0x20 MSTORE PUSH1 0x40 DUP1 DUP3 KECCAK256 DUP1 SLOAD PUSH1 0x1 PUSH1 0x1 PUSH1 0xA0 SHL SUB NOT AND PUSH1 0x1 PUSH1 0x1 PUSH1 0xA0 SHL SUB DUP7 DUP2 AND SWAP2 DUP3 OR SWAP1 SWAP3 SSTORE SWAP2 MLOAD DUP5 SWAP4 SWAP2 DUP8 AND SWAP2 PUSH32 0xDDF252AD1BE2C89B69C2B068FC378DAA952BA7F163C4A11628F55A4DF523B3EF SWAP2 LOG4 POP POP POP JUMP JUMPDEST PUSH2 0xE60 DUP3 DUP3 PUSH1 0x40 MLOAD DUP1 PUSH1 0x20 ADD PUSH1 0x40 MSTORE DUP1 PUSH1 0x0 DUP2 MSTORE POP PUSH2 0x233D JUMP JUMPDEST PUSH1 0x0 PUSH2 0x1F1D PUSH1 0x8 SLOAD SWAP1 JUMP JUMPDEST SWAP1 POP PUSH1 0x0 JUMPDEST DUP4 DUP2 LT ISZERO PUSH2 0x1587 JUMPI PUSH2 0x1F38 DUP4 PUSH2 0xD1E DUP4 DUP6 PUSH2 0x2CFA JUMP JUMPDEST DUP1 PUSH2 0x1F42 DUP2 PUSH2 0x2E2A JUMP JUMPDEST SWAP2 POP POP PUSH2 0x1F22 JUMP JUMPDEST PUSH1 0xA DUP1 SLOAD PUSH1 0x1 PUSH1 0x1 PUSH1 0xA0 SHL SUB DUP4 DUP2 AND PUSH1 0x1 PUSH1 0x1 PUSH1 0xA0 SHL SUB NOT DUP4 AND DUP2 OR SWAP1 SWAP4 SSTORE PUSH1 0x40 MLOAD SWAP2 AND SWAP2 SWAP1 DUP3 SWAP1 PUSH32 0x8BE0079C531659141344CD1FD0A4F28419497F9722A3DAAFE3B4186F6B6457E0 SWAP1 PUSH1 0x0 SWAP1 LOG3 POP POP JUMP JUMPDEST DUP2 PUSH1 0x1 PUSH1 0x1 PUSH1 0xA0 SHL SUB AND DUP4 PUSH1 0x1 PUSH1 0x1 PUSH1 0xA0 SHL SUB AND EQ ISZERO PUSH2 0x1FFE JUMPI PUSH1 0x40 MLOAD PUSH3 0x461BCD PUSH1 0xE5 SHL DUP2 MSTORE PUSH1 0x20 PUSH1 0x4 DUP3 ADD MSTORE PUSH1 0x19 PUSH1 0x24 DUP3 ADD MSTORE PUSH32 0x4552433732313A20617070726F766520746F2063616C6C657200000000000000 PUSH1 0x44 DUP3 ADD MSTORE PUSH1 0x64 ADD PUSH2 0x744 JUMP JUMPDEST PUSH1 0x1 PUSH1 0x1 PUSH1 0xA0 SHL SUB DUP4 DUP2 AND PUSH1 0x0 DUP2 DUP2 MSTORE PUSH1 0x5 PUSH1 0x20 SWAP1 DUP2 MSTORE PUSH1 0x40 DUP1 DUP4 KECCAK256 SWAP5 DUP8 AND DUP1 DUP5 MSTORE SWAP5 DUP3 MSTORE SWAP2 DUP3 SWAP1 KECCAK256 DUP1 SLOAD PUSH1 0xFF NOT AND DUP7 ISZERO ISZERO SWAP1 DUP2 OR SWAP1 SWAP2 SSTORE SWAP2 MLOAD SWAP2 DUP3 MSTORE PUSH32 0x17307EAB39AB6107E8899845AD3D59BD9653F200F220920489CA2B5937696C31 SWAP2 ADD PUSH1 0x40 MLOAD DUP1 SWAP2 SUB SWAP1 LOG3 POP POP POP JUMP JUMPDEST PUSH2 0x2076 DUP5 DUP5 DUP5 PUSH2 0x1D4D JUMP JUMPDEST PUSH2 0x2082 DUP5 DUP5 DUP5 DUP5 PUSH2 0x2370 JUMP JUMPDEST PUSH2 0x1587 JUMPI PUSH1 0x40 MLOAD PUSH3 0x461BCD PUSH1 0xE5 SHL DUP2 MSTORE PUSH1 0x4 ADD PUSH2 0x744 SWAP1 PUSH2 0x2EBD JUMP JUMPDEST PUSH1 0x60 DUP2 PUSH2 0x20C2 JUMPI POP POP PUSH1 0x40 DUP1 MLOAD DUP1 DUP3 ADD SWAP1 SWAP2 MSTORE PUSH1 0x1 DUP2 MSTORE PUSH1 0x3 PUSH1 0xFC SHL PUSH1 0x20 DUP3 ADD MSTORE SWAP1 JUMP JUMPDEST DUP2 PUSH1 0x0 JUMPDEST DUP2 ISZERO PUSH2 0x20EC JUMPI DUP1 PUSH2 0x20D6 DUP2 PUSH2 0x2E2A JUMP JUMPDEST SWAP2 POP PUSH2 0x20E5 SWAP1 POP PUSH1 0xA DUP4 PUSH2 0x2E7A JUMP JUMPDEST SWAP2 POP PUSH2 0x20C6 JUMP JUMPDEST PUSH1 0x0 DUP2 PUSH8 0xFFFFFFFFFFFFFFFF DUP2 GT ISZERO PUSH2 0x2107 JUMPI PUSH2 0x2107 PUSH2 0x28E2 JUMP JUMPDEST PUSH1 0x40 MLOAD SWAP1 DUP1 DUP3 MSTORE DUP1 PUSH1 0x1F ADD PUSH1 0x1F NOT AND PUSH1 0x20 ADD DUP3 ADD PUSH1 0x40 MSTORE DUP1 ISZERO PUSH2 0x2131 JUMPI PUSH1 0x20 DUP3 ADD DUP2 DUP1 CALLDATASIZE DUP4 CALLDATACOPY ADD SWAP1 POP JUMPDEST POP SWAP1 POP JUMPDEST DUP5 ISZERO PUSH2 0x1D45 JUMPI PUSH2 0x2146 PUSH1 0x1 DUP4 PUSH2 0x2CE3 JUMP JUMPDEST SWAP2 POP PUSH2 0x2153 PUSH1 0xA DUP7 PUSH2 0x2F0F JUMP JUMPDEST PUSH2 0x215E SWAP1 PUSH1 0x30 PUSH2 0x2CFA JUMP JUMPDEST PUSH1 0xF8 SHL DUP2 DUP4 DUP2 MLOAD DUP2 LT PUSH2 0x2173 JUMPI PUSH2 0x2173 PUSH2 0x2D12 JUMP JUMPDEST PUSH1 0x20 ADD ADD SWAP1 PUSH1 0x1 PUSH1 0x1 PUSH1 0xF8 SHL SUB NOT AND SWAP1 DUP2 PUSH1 0x0 BYTE SWAP1 MSTORE8 POP PUSH2 0x2195 PUSH1 0xA DUP7 PUSH2 0x2E7A JUMP JUMPDEST SWAP5 POP PUSH2 0x2135 JUMP JUMPDEST PUSH1 0x60 PUSH1 0xC DUP1 SLOAD PUSH2 0x7EC SWAP1 PUSH2 0x2C12 JUMP JUMPDEST PUSH1 0x60 PUSH1 0xD DUP1 SLOAD PUSH2 0x7EC SWAP1 PUSH2 0x2C12 JUMP JUMPDEST PUSH1 0x60 PUSH2 0x21C5 DUP3 PUSH2 0x1BD8 JUMP JUMPDEST PUSH2 0x2229 JUMPI PUSH1 0x40 MLOAD PUSH3 0x461BCD PUSH1 0xE5 SHL DUP2 MSTORE PUSH1 0x20 PUSH1 0x4 DUP3 ADD MSTORE PUSH1 0x2F PUSH1 0x24 DUP3 ADD MSTORE PUSH32 0x4552433732314D657461646174613A2055524920717565727920666F72206E6F PUSH1 0x44 DUP3 ADD MSTORE PUSH15 0x3732BC34B9BA32B73A103A37B5B2B7 PUSH1 0x89 SHL PUSH1 0x64 DUP3 ADD MSTORE PUSH1 0x84 ADD PUSH2 0x744 JUMP JUMPDEST PUSH1 0x0 PUSH2 0x2233 PUSH2 0x219C JUMP JUMPDEST SWAP1 POP PUSH1 0x0 DUP2 MLOAD GT PUSH2 0x2253 JUMPI PUSH1 0x40 MLOAD DUP1 PUSH1 0x20 ADD PUSH1 0x40 MSTORE DUP1 PUSH1 0x0 DUP2 MSTORE POP PUSH2 0x227E JUMP JUMPDEST DUP1 PUSH2 0x225D DUP5 PUSH2 0x209E JUMP JUMPDEST PUSH1 0x40 MLOAD PUSH1 0x20 ADD PUSH2 0x226E SWAP3 SWAP2 SWAP1 PUSH2 0x2E8E JUMP JUMPDEST PUSH1 0x40 MLOAD PUSH1 0x20 DUP2 DUP4 SUB SUB DUP2 MSTORE SWAP1 PUSH1 0x40 MSTORE JUMPDEST SWAP4 SWAP3 POP POP POP JUMP JUMPDEST PUSH1 0x1 PUSH1 0x1 PUSH1 0xA0 SHL SUB DUP4 AND PUSH2 0x22E0 JUMPI PUSH2 0x22DB DUP2 PUSH1 0x8 DUP1 SLOAD PUSH1 0x0 DUP4 DUP2 MSTORE PUSH1 0x9 PUSH1 0x20 MSTORE PUSH1 0x40 DUP2 KECCAK256 DUP3 SWAP1 SSTORE PUSH1 0x1 DUP3 ADD DUP4 SSTORE SWAP2 SWAP1 SWAP2 MSTORE PUSH32 0xF3F7A9FE364FAAB93B216DA50A3214154F22A0A2B415B23A84C8169E8B636EE3 ADD SSTORE JUMP JUMPDEST PUSH2 0x2303 JUMP JUMPDEST DUP2 PUSH1 0x1 PUSH1 0x1 PUSH1 0xA0 SHL SUB AND DUP4 PUSH1 0x1 PUSH1 0x1 PUSH1 0xA0 SHL SUB AND EQ PUSH2 0x2303 JUMPI PUSH2 0x2303 DUP4 DUP3 PUSH2 0x247D JUMP JUMPDEST PUSH1 0x1 PUSH1 0x1 PUSH1 0xA0 SHL SUB DUP3 AND PUSH2 0x231A JUMPI PUSH2 0xA08 DUP2 PUSH2 0x251A JUMP JUMPDEST DUP3 PUSH1 0x1 PUSH1 0x1 PUSH1 0xA0 SHL SUB AND DUP3 PUSH1 0x1 PUSH1 0x1 PUSH1 0xA0 SHL SUB AND EQ PUSH2 0xA08 JUMPI PUSH2 0xA08 DUP3 DUP3 PUSH2 0x25C9 JUMP JUMPDEST PUSH2 0x2347 DUP4 DUP4 PUSH2 0x260D JUMP JUMPDEST PUSH2 0x2354 PUSH1 0x0 DUP5 DUP5 DUP5 PUSH2 0x2370 JUMP JUMPDEST PUSH2 0xA08 JUMPI PUSH1 0x40 MLOAD PUSH3 0x461BCD PUSH1 0xE5 SHL DUP2 MSTORE PUSH1 0x4 ADD PUSH2 0x744 SWAP1 PUSH2 0x2EBD JUMP JUMPDEST PUSH1 0x0 PUSH1 0x1 PUSH1 0x1 PUSH1 0xA0 SHL SUB DUP5 AND EXTCODESIZE ISZERO PUSH2 0x2472 JUMPI PUSH1 0x40 MLOAD PUSH4 0xA85BD01 PUSH1 0xE1 SHL DUP2 MSTORE PUSH1 0x1 PUSH1 0x1 PUSH1 0xA0 SHL SUB DUP6 AND SWAP1 PUSH4 0x150B7A02 SWAP1 PUSH2 0x23B4 SWAP1 CALLER SWAP1 DUP10 SWAP1 DUP9 SWAP1 DUP9 SWAP1 PUSH1 0x4 ADD PUSH2 0x2F23 JUMP JUMPDEST PUSH1 0x20 PUSH1 0x40 MLOAD DUP1 DUP4 SUB DUP2 PUSH1 0x0 DUP8 DUP1 EXTCODESIZE ISZERO DUP1 ISZERO PUSH2 0x23CE JUMPI PUSH1 0x0 DUP1 REVERT JUMPDEST POP GAS CALL SWAP3 POP POP POP DUP1 ISZERO PUSH2 0x23FE JUMPI POP PUSH1 0x40 DUP1 MLOAD PUSH1 0x1F RETURNDATASIZE SWAP1 DUP2 ADD PUSH1 0x1F NOT AND DUP3 ADD SWAP1 SWAP3 MSTORE PUSH2 0x23FB SWAP2 DUP2 ADD SWAP1 PUSH2 0x2F60 JUMP JUMPDEST PUSH1 0x1 JUMPDEST PUSH2 0x2458 JUMPI RETURNDATASIZE DUP1 DUP1 ISZERO PUSH2 0x242C JUMPI PUSH1 0x40 MLOAD SWAP2 POP PUSH1 0x1F NOT PUSH1 0x3F RETURNDATASIZE ADD AND DUP3 ADD PUSH1 0x40 MSTORE RETURNDATASIZE DUP3 MSTORE RETURNDATASIZE PUSH1 0x0 PUSH1 0x20 DUP5 ADD RETURNDATACOPY PUSH2 0x2431 JUMP JUMPDEST PUSH1 0x60 SWAP2 POP JUMPDEST POP DUP1 MLOAD PUSH2 0x2450 JUMPI PUSH1 0x40 MLOAD PUSH3 0x461BCD PUSH1 0xE5 SHL DUP2 MSTORE PUSH1 0x4 ADD PUSH2 0x744 SWAP1 PUSH2 0x2EBD JUMP JUMPDEST DUP1 MLOAD DUP2 PUSH1 0x20 ADD REVERT JUMPDEST PUSH1 0x1 PUSH1 0x1 PUSH1 0xE0 SHL SUB NOT AND PUSH4 0xA85BD01 PUSH1 0xE1 SHL EQ SWAP1 POP PUSH2 0x1D45 JUMP JUMPDEST POP PUSH1 0x1 SWAP5 SWAP4 POP POP POP POP JUMP JUMPDEST PUSH1 0x0 PUSH1 0x1 PUSH2 0x248A DUP5 PUSH2 0x10C8 JUMP JUMPDEST PUSH2 0x2494 SWAP2 SWAP1 PUSH2 0x2CE3 JUMP JUMPDEST PUSH1 0x0 DUP4 DUP2 MSTORE PUSH1 0x7 PUSH1 0x20 MSTORE PUSH1 0x40 SWAP1 KECCAK256 SLOAD SWAP1 SWAP2 POP DUP1 DUP3 EQ PUSH2 0x24E7 JUMPI PUSH1 0x1 PUSH1 0x1 PUSH1 0xA0 SHL SUB DUP5 AND PUSH1 0x0 SWAP1 DUP2 MSTORE PUSH1 0x6 PUSH1 0x20 SWAP1 DUP2 MSTORE PUSH1 0x40 DUP1 DUP4 KECCAK256 DUP6 DUP5 MSTORE DUP3 MSTORE DUP1 DUP4 KECCAK256 SLOAD DUP5 DUP5 MSTORE DUP2 DUP5 KECCAK256 DUP2 SWAP1 SSTORE DUP4 MSTORE PUSH1 0x7 SWAP1 SWAP2 MSTORE SWAP1 KECCAK256 DUP2 SWAP1 SSTORE JUMPDEST POP PUSH1 0x0 SWAP2 DUP3 MSTORE PUSH1 0x7 PUSH1 0x20 SWAP1 DUP2 MSTORE PUSH1 0x40 DUP1 DUP5 KECCAK256 DUP5 SWAP1 SSTORE PUSH1 0x1 PUSH1 0x1 PUSH1 0xA0 SHL SUB SWAP1 SWAP5 AND DUP4 MSTORE PUSH1 0x6 DUP2 MSTORE DUP4 DUP4 KECCAK256 SWAP2 DUP4 MSTORE MSTORE SWAP1 DUP2 KECCAK256 SSTORE JUMP JUMPDEST PUSH1 0x8 SLOAD PUSH1 0x0 SWAP1 PUSH2 0x252C SWAP1 PUSH1 0x1 SWAP1 PUSH2 0x2CE3 JUMP JUMPDEST PUSH1 0x0 DUP4 DUP2 MSTORE PUSH1 0x9 PUSH1 0x20 MSTORE PUSH1 0x40 DUP2 KECCAK256 SLOAD PUSH1 0x8 DUP1 SLOAD SWAP4 SWAP5 POP SWAP1 SWAP3 DUP5 SWAP1 DUP2 LT PUSH2 0x2554 JUMPI PUSH2 0x2554 PUSH2 0x2D12 JUMP JUMPDEST SWAP1 PUSH1 0x0 MSTORE PUSH1 0x20 PUSH1 0x0 KECCAK256 ADD SLOAD SWAP1 POP DUP1 PUSH1 0x8 DUP4 DUP2 SLOAD DUP2 LT PUSH2 0x2575 JUMPI PUSH2 0x2575 PUSH2 0x2D12 JUMP JUMPDEST PUSH1 0x0 SWAP2 DUP3 MSTORE PUSH1 0x20 DUP1 DUP4 KECCAK256 SWAP1 SWAP2 ADD SWAP3 SWAP1 SWAP3 SSTORE DUP3 DUP2 MSTORE PUSH1 0x9 SWAP1 SWAP2 MSTORE PUSH1 0x40 DUP1 DUP3 KECCAK256 DUP5 SWAP1 SSTORE DUP6 DUP3 MSTORE DUP2 KECCAK256 SSTORE PUSH1 0x8 DUP1 SLOAD DUP1 PUSH2 0x25AD JUMPI PUSH2 0x25AD PUSH2 0x2F7D JUMP JUMPDEST PUSH1 0x1 SWAP1 SUB DUP2 DUP2 SWAP1 PUSH1 0x0 MSTORE PUSH1 0x20 PUSH1 0x0 KECCAK256 ADD PUSH1 0x0 SWAP1 SSTORE SWAP1 SSTORE POP POP POP POP JUMP JUMPDEST PUSH1 0x0 PUSH2 0x25D4 DUP4 PUSH2 0x10C8 JUMP JUMPDEST PUSH1 0x1 PUSH1 0x1 PUSH1 0xA0 SHL SUB SWAP1 SWAP4 AND PUSH1 0x0 SWAP1 DUP2 MSTORE PUSH1 0x6 PUSH1 0x20 SWAP1 DUP2 MSTORE PUSH1 0x40 DUP1 DUP4 KECCAK256 DUP7 DUP5 MSTORE DUP3 MSTORE DUP1 DUP4 KECCAK256 DUP6 SWAP1 SSTORE SWAP4 DUP3 MSTORE PUSH1 0x7 SWAP1 MSTORE SWAP2 SWAP1 SWAP2 KECCAK256 SWAP2 SWAP1 SWAP2 SSTORE POP JUMP JUMPDEST PUSH1 0x1 PUSH1 0x1 PUSH1 0xA0 SHL SUB DUP3 AND PUSH2 0x2663 JUMPI PUSH1 0x40 MLOAD PUSH3 0x461BCD PUSH1 0xE5 SHL DUP2 MSTORE PUSH1 0x20 PUSH1 0x4 DUP3 ADD DUP2 SWAP1 MSTORE PUSH1 0x24 DUP3 ADD MSTORE PUSH32 0x4552433732313A206D696E7420746F20746865207A65726F2061646472657373 PUSH1 0x44 DUP3 ADD MSTORE PUSH1 0x64 ADD PUSH2 0x744 JUMP JUMPDEST PUSH2 0x266C DUP2 PUSH2 0x1BD8 JUMP JUMPDEST ISZERO PUSH2 0x26B9 JUMPI PUSH1 0x40 MLOAD PUSH3 0x461BCD PUSH1 0xE5 SHL DUP2 MSTORE PUSH1 0x20 PUSH1 0x4 DUP3 ADD MSTORE PUSH1 0x1C PUSH1 0x24 DUP3 ADD MSTORE PUSH32 0x4552433732313A20746F6B656E20616C7265616479206D696E74656400000000 PUSH1 0x44 DUP3 ADD MSTORE PUSH1 0x64 ADD PUSH2 0x744 JUMP JUMPDEST PUSH2 0x26C5 PUSH1 0x0 DUP4 DUP4 PUSH2 0x2285 JUMP JUMPDEST PUSH1 0x1 PUSH1 0x1 PUSH1 0xA0 SHL SUB DUP3 AND PUSH1 0x0 SWAP1 DUP2 MSTORE PUSH1 0x3 PUSH1 0x20 MSTORE PUSH1 0x40 DUP2 KECCAK256 DUP1 SLOAD PUSH1 0x1 SWAP3 SWAP1 PUSH2 0x26EE SWAP1 DUP5 SWAP1 PUSH2 0x2CFA JUMP JUMPDEST SWAP1 SWAP2 SSTORE POP POP PUSH1 0x0 DUP2 DUP2 MSTORE PUSH1 0x2 PUSH1 0x20 MSTORE PUSH1 0x40 DUP1 DUP3 KECCAK256 DUP1 SLOAD PUSH1 0x1 PUSH1 0x1 PUSH1 0xA0 SHL SUB NOT AND PUSH1 0x1 PUSH1 0x1 PUSH1 0xA0 SHL SUB DUP7 AND SWAP1 DUP2 OR SWAP1 SWAP2 SSTORE SWAP1 MLOAD DUP4 SWAP3 SWAP1 PUSH32 0xDDF252AD1BE2C89B69C2B068FC378DAA952BA7F163C4A11628F55A4DF523B3EF SWAP1 DUP3 SWAP1 LOG4 POP POP JUMP JUMPDEST DUP3 DUP1 SLOAD PUSH2 0x2758 SWAP1 PUSH2 0x2C12 JUMP JUMPDEST SWAP1 PUSH1 0x0 MSTORE PUSH1 0x20 PUSH1 0x0 KECCAK256 SWAP1 PUSH1 0x1F ADD PUSH1 0x20 SWAP1 DIV DUP2 ADD SWAP3 DUP3 PUSH2 0x277A JUMPI PUSH1 0x0 DUP6 SSTORE PUSH2 0x27C0 JUMP JUMPDEST DUP3 PUSH1 0x1F LT PUSH2 0x2793 JUMPI DUP1 MLOAD PUSH1 0xFF NOT AND DUP4 DUP1 ADD OR DUP6 SSTORE PUSH2 0x27C0 JUMP JUMPDEST DUP3 DUP1 ADD PUSH1 0x1 ADD DUP6 SSTORE DUP3 ISZERO PUSH2 0x27C0 JUMPI SWAP2 DUP3 ADD JUMPDEST DUP3 DUP2 GT ISZERO PUSH2 0x27C0 JUMPI DUP3 MLOAD DUP3 SSTORE SWAP2 PUSH1 0x20 ADD SWAP2 SWAP1 PUSH1 0x1 ADD SWAP1 PUSH2 0x27A5 JUMP JUMPDEST POP PUSH2 0x27CC SWAP3 SWAP2 POP PUSH2 0x27D0 JUMP JUMPDEST POP SWAP1 JUMP JUMPDEST JUMPDEST DUP1 DUP3 GT ISZERO PUSH2 0x27CC JUMPI PUSH1 0x0 DUP2 SSTORE PUSH1 0x1 ADD PUSH2 0x27D1 JUMP JUMPDEST PUSH1 0x1 PUSH1 0x1 PUSH1 0xE0 SHL SUB NOT DUP2 AND DUP2 EQ PUSH2 0x1AB8 JUMPI PUSH1 0x0 DUP1 REVERT JUMPDEST PUSH1 0x0 PUSH1 0x20 DUP3 DUP5 SUB SLT ISZERO PUSH2 0x280D JUMPI PUSH1 0x0 DUP1 REVERT JUMPDEST DUP2 CALLDATALOAD PUSH2 0x227E DUP2 PUSH2 0x27E5 JUMP JUMPDEST PUSH1 0x0 JUMPDEST DUP4 DUP2 LT ISZERO PUSH2 0x2833 JUMPI DUP2 DUP2 ADD MLOAD DUP4 DUP3 ADD MSTORE PUSH1 0x20 ADD PUSH2 0x281B JUMP JUMPDEST DUP4 DUP2 GT ISZERO PUSH2 0x1587 JUMPI POP POP PUSH1 0x0 SWAP2 ADD MSTORE JUMP JUMPDEST PUSH1 0x0 DUP2 MLOAD DUP1 DUP5 MSTORE PUSH2 0x285C DUP2 PUSH1 0x20 DUP7 ADD PUSH1 0x20 DUP7 ADD PUSH2 0x2818 JUMP JUMPDEST PUSH1 0x1F ADD PUSH1 0x1F NOT AND SWAP3 SWAP1 SWAP3 ADD PUSH1 0x20 ADD SWAP3 SWAP2 POP POP JUMP JUMPDEST PUSH1 0x20 DUP2 MSTORE PUSH1 0x0 PUSH2 0x227E PUSH1 0x20 DUP4 ADD DUP5 PUSH2 0x2844 JUMP JUMPDEST PUSH1 0x0 PUSH1 0x20 DUP3 DUP5 SUB SLT ISZERO PUSH2 0x2895 JUMPI PUSH1 0x0 DUP1 REVERT JUMPDEST POP CALLDATALOAD SWAP2 SWAP1 POP JUMP JUMPDEST DUP1 CALLDATALOAD PUSH1 0x1 PUSH1 0x1 PUSH1 0xA0 SHL SUB DUP2 AND DUP2 EQ PUSH2 0x28B3 JUMPI PUSH1 0x0 DUP1 REVERT JUMPDEST SWAP2 SWAP1 POP JUMP JUMPDEST PUSH1 0x0 DUP1 PUSH1 0x40 DUP4 DUP6 SUB SLT ISZERO PUSH2 0x28CB JUMPI PUSH1 0x0 DUP1 REVERT JUMPDEST PUSH2 0x28D4 DUP4 PUSH2 0x289C JUMP JUMPDEST SWAP5 PUSH1 0x20 SWAP4 SWAP1 SWAP4 ADD CALLDATALOAD SWAP4 POP POP POP JUMP JUMPDEST PUSH4 0x4E487B71 PUSH1 0xE0 SHL PUSH1 0x0 MSTORE PUSH1 0x41 PUSH1 0x4 MSTORE PUSH1 0x24 PUSH1 0x0 REVERT JUMPDEST PUSH1 0x0 PUSH8 0xFFFFFFFFFFFFFFFF DUP1 DUP5 GT ISZERO PUSH2 0x2913 JUMPI PUSH2 0x2913 PUSH2 0x28E2 JUMP JUMPDEST PUSH1 0x40 MLOAD PUSH1 0x1F DUP6 ADD PUSH1 0x1F NOT SWAP1 DUP2 AND PUSH1 0x3F ADD AND DUP2 ADD SWAP1 DUP3 DUP3 GT DUP2 DUP4 LT OR ISZERO PUSH2 0x293B JUMPI PUSH2 0x293B PUSH2 0x28E2 JUMP JUMPDEST DUP2 PUSH1 0x40 MSTORE DUP1 SWAP4 POP DUP6 DUP2 MSTORE DUP7 DUP7 DUP7 ADD GT ISZERO PUSH2 0x2954 JUMPI PUSH1 0x0 DUP1 REVERT JUMPDEST DUP6 DUP6 PUSH1 0x20 DUP4 ADD CALLDATACOPY PUSH1 0x0 PUSH1 0x20 DUP8 DUP4 ADD ADD MSTORE POP POP POP SWAP4 SWAP3 POP POP POP JUMP JUMPDEST PUSH1 0x0 DUP3 PUSH1 0x1F DUP4 ADD SLT PUSH2 0x297F JUMPI PUSH1 0x0 DUP1 REVERT JUMPDEST PUSH2 0x227E DUP4 DUP4 CALLDATALOAD PUSH1 0x20 DUP6 ADD PUSH2 0x28F8 JUMP JUMPDEST PUSH1 0x0 DUP1 PUSH1 0x40 DUP4 DUP6 SUB SLT ISZERO PUSH2 0x29A1 JUMPI PUSH1 0x0 DUP1 REVERT JUMPDEST DUP3 CALLDATALOAD SWAP2 POP PUSH1 0x20 DUP4 ADD CALLDATALOAD PUSH8 0xFFFFFFFFFFFFFFFF DUP2 GT ISZERO PUSH2 0x29BF JUMPI PUSH1 0x0 DUP1 REVERT JUMPDEST PUSH2 0x29CB DUP6 DUP3 DUP7 ADD PUSH2 0x296E JUMP JUMPDEST SWAP2 POP POP SWAP3 POP SWAP3 SWAP1 POP JUMP JUMPDEST PUSH1 0x0 DUP1 PUSH1 0x0 PUSH1 0x60 DUP5 DUP7 SUB SLT ISZERO PUSH2 0x29EA JUMPI PUSH1 0x0 DUP1 REVERT JUMPDEST PUSH2 0x29F3 DUP5 PUSH2 0x289C JUMP JUMPDEST SWAP3 POP PUSH2 0x2A01 PUSH1 0x20 DUP6 ADD PUSH2 0x289C JUMP JUMPDEST SWAP2 POP PUSH1 0x40 DUP5 ADD CALLDATALOAD SWAP1 POP SWAP3 POP SWAP3 POP SWAP3 JUMP JUMPDEST PUSH4 0x4E487B71 PUSH1 0xE0 SHL PUSH1 0x0 MSTORE PUSH1 0x21 PUSH1 0x4 MSTORE PUSH1 0x24 PUSH1 0x0 REVERT JUMPDEST PUSH1 0x20 DUP2 ADD PUSH1 0x3 DUP4 LT PUSH2 0x2A49 JUMPI PUSH4 0x4E487B71 PUSH1 0xE0 SHL PUSH1 0x0 MSTORE PUSH1 0x21 PUSH1 0x4 MSTORE PUSH1 0x24 PUSH1 0x0 REVERT JUMPDEST SWAP2 SWAP1 MSTORE SWAP1 JUMP JUMPDEST PUSH1 0x0 PUSH1 0x20 DUP3 DUP5 SUB SLT ISZERO PUSH2 0x2A61 JUMPI PUSH1 0x0 DUP1 REVERT JUMPDEST DUP2 CALLDATALOAD PUSH8 0xFFFFFFFFFFFFFFFF DUP2 GT ISZERO PUSH2 0x2A78 JUMPI PUSH1 0x0 DUP1 REVERT JUMPDEST PUSH2 0x1D45 DUP5 DUP3 DUP6 ADD PUSH2 0x296E JUMP JUMPDEST PUSH1 0x0 PUSH1 0x20 DUP3 DUP5 SUB SLT ISZERO PUSH2 0x2A96 JUMPI PUSH1 0x0 DUP1 REVERT JUMPDEST PUSH2 0x227E DUP3 PUSH2 0x289C JUMP JUMPDEST PUSH1 0x20 DUP1 DUP3 MSTORE DUP3 MLOAD DUP3 DUP3 ADD DUP2 SWAP1 MSTORE PUSH1 0x0 SWAP2 SWAP1 DUP5 DUP3 ADD SWAP1 PUSH1 0x40 DUP6 ADD SWAP1 DUP5 JUMPDEST DUP2 DUP2 LT ISZERO PUSH2 0x2AD7 JUMPI DUP4 MLOAD DUP4 MSTORE SWAP3 DUP5 ADD SWAP3 SWAP2 DUP5 ADD SWAP2 PUSH1 0x1 ADD PUSH2 0x2ABB JUMP JUMPDEST POP SWAP1 SWAP7 SWAP6 POP POP POP POP POP POP JUMP JUMPDEST PUSH1 0x0 DUP1 PUSH1 0x40 DUP4 DUP6 SUB SLT ISZERO PUSH2 0x2AF6 JUMPI PUSH1 0x0 DUP1 REVERT JUMPDEST PUSH2 0x2AFF DUP4 PUSH2 0x289C JUMP JUMPDEST SWAP2 POP PUSH1 0x20 DUP4 ADD CALLDATALOAD DUP1 ISZERO ISZERO DUP2 EQ PUSH2 0x2B14 JUMPI PUSH1 0x0 DUP1 REVERT JUMPDEST DUP1 SWAP2 POP POP SWAP3 POP SWAP3 SWAP1 POP JUMP JUMPDEST PUSH1 0x0 DUP1 PUSH1 0x0 DUP1 PUSH1 0x80 DUP6 DUP8 SUB SLT ISZERO PUSH2 0x2B35 JUMPI PUSH1 0x0 DUP1 REVERT JUMPDEST PUSH2 0x2B3E DUP6 PUSH2 0x289C JUMP JUMPDEST SWAP4 POP PUSH2 0x2B4C PUSH1 0x20 DUP7 ADD PUSH2 0x289C JUMP JUMPDEST SWAP3 POP PUSH1 0x40 DUP6 ADD CALLDATALOAD SWAP2 POP PUSH1 0x60 DUP6 ADD CALLDATALOAD PUSH8 0xFFFFFFFFFFFFFFFF DUP2 GT ISZERO PUSH2 0x2B6F JUMPI PUSH1 0x0 DUP1 REVERT JUMPDEST DUP6 ADD PUSH1 0x1F DUP2 ADD DUP8 SGT PUSH2 0x2B80 JUMPI PUSH1 0x0 DUP1 REVERT JUMPDEST PUSH2 0x2B8F DUP8 DUP3 CALLDATALOAD PUSH1 0x20 DUP5 ADD PUSH2 0x28F8 JUMP JUMPDEST SWAP2 POP POP SWAP3 SWAP6 SWAP2 SWAP5 POP SWAP3 POP JUMP JUMPDEST PUSH1 0x0 DUP1 PUSH1 0x40 DUP4 DUP6 SUB SLT ISZERO PUSH2 0x2BAE JUMPI PUSH1 0x0 DUP1 REVERT JUMPDEST PUSH2 0x2BB7 DUP4 PUSH2 0x289C JUMP JUMPDEST SWAP2 POP PUSH2 0x2BC5 PUSH1 0x20 DUP5 ADD PUSH2 0x289C JUMP JUMPDEST SWAP1 POP SWAP3 POP SWAP3 SWAP1 POP JUMP JUMPDEST PUSH1 0x20 DUP1 DUP3 MSTORE PUSH1 0x24 SWAP1 DUP3 ADD MSTORE PUSH32 0x53616C65206D7573742062652061637469766520746F20676574207468652070 PUSH1 0x40 DUP3 ADD MSTORE PUSH4 0x72696365 PUSH1 0xE0 SHL PUSH1 0x60 DUP3 ADD MSTORE PUSH1 0x80 ADD SWAP1 JUMP JUMPDEST PUSH1 0x1 DUP2 DUP2 SHR SWAP1 DUP3 AND DUP1 PUSH2 0x2C26 JUMPI PUSH1 0x7F DUP3 AND SWAP2 POP JUMPDEST PUSH1 0x20 DUP3 LT DUP2 EQ ISZERO PUSH2 0x1241 JUMPI PUSH4 0x4E487B71 PUSH1 0xE0 SHL PUSH1 0x0 MSTORE PUSH1 0x22 PUSH1 0x4 MSTORE PUSH1 0x24 PUSH1 0x0 REVERT JUMPDEST PUSH1 0x20 DUP1 DUP3 MSTORE DUP2 DUP2 ADD MSTORE PUSH32 0x4F776E61626C653A2063616C6C6572206973206E6F7420746865206F776E6572 PUSH1 0x40 DUP3 ADD MSTORE PUSH1 0x60 ADD SWAP1 JUMP JUMPDEST PUSH1 0x20 DUP1 DUP3 MSTORE PUSH1 0x31 SWAP1 DUP3 ADD MSTORE PUSH32 0x4552433732313A207472616E736665722063616C6C6572206973206E6F74206F PUSH1 0x40 DUP3 ADD MSTORE PUSH17 0x1DDB995C881B9BDC88185C1C1C9BDD9959 PUSH1 0x7A SHL PUSH1 0x60 DUP3 ADD MSTORE PUSH1 0x80 ADD SWAP1 JUMP JUMPDEST PUSH4 0x4E487B71 PUSH1 0xE0 SHL PUSH1 0x0 MSTORE PUSH1 0x11 PUSH1 0x4 MSTORE PUSH1 0x24 PUSH1 0x0 REVERT JUMPDEST PUSH1 0x0 DUP3 DUP3 LT ISZERO PUSH2 0x2CF5 JUMPI PUSH2 0x2CF5 PUSH2 0x2CCD JUMP JUMPDEST POP SUB SWAP1 JUMP JUMPDEST PUSH1 0x0 DUP3 NOT DUP3 GT ISZERO PUSH2 0x2D0D JUMPI PUSH2 0x2D0D PUSH2 0x2CCD JUMP JUMPDEST POP ADD SWAP1 JUMP JUMPDEST PUSH4 0x4E487B71 PUSH1 0xE0 SHL PUSH1 0x0 MSTORE PUSH1 0x32 PUSH1 0x4 MSTORE PUSH1 0x24 PUSH1 0x0 REVERT JUMPDEST PUSH1 0x20 DUP1 DUP3 MSTORE DUP2 DUP2 ADD MSTORE PUSH32 0x53616C65206D7573742062652061637469766520746F206D696E742065676773 PUSH1 0x40 DUP3 ADD MSTORE PUSH1 0x60 ADD SWAP1 JUMP JUMPDEST PUSH1 0x20 DUP1 DUP3 MSTORE PUSH1 0x2C SWAP1 DUP3 ADD MSTORE PUSH32 0x4E6F7420656E6F756768204672696767696E204567677320666F722074686973 PUSH1 0x40 DUP3 ADD MSTORE PUSH12 0x20616D6F756E74206D617465 PUSH1 0xA0 SHL PUSH1 0x60 DUP3 ADD MSTORE PUSH1 0x80 ADD SWAP1 JUMP JUMPDEST PUSH1 0x20 DUP1 DUP3 MSTORE PUSH1 0x2A SWAP1 DUP3 ADD MSTORE PUSH32 0x596F75207265616368656420746865206D6178696D756D20616D6F756E742066 PUSH1 0x40 DUP3 ADD MSTORE PUSH10 0x6F72206D696E74696E67 PUSH1 0xB0 SHL PUSH1 0x60 DUP3 ADD MSTORE PUSH1 0x80 ADD SWAP1 JUMP JUMPDEST PUSH1 0x20 DUP1 DUP3 MSTORE PUSH1 0x19 SWAP1 DUP3 ADD MSTORE PUSH32 0x496E636F727265637420616D6F756E74206F6620457468657200000000000000 PUSH1 0x40 DUP3 ADD MSTORE PUSH1 0x60 ADD SWAP1 JUMP JUMPDEST PUSH1 0x0 PUSH1 0x0 NOT DUP3 EQ ISZERO PUSH2 0x2E3E JUMPI PUSH2 0x2E3E PUSH2 0x2CCD JUMP JUMPDEST POP PUSH1 0x1 ADD SWAP1 JUMP JUMPDEST PUSH1 0x0 DUP2 PUSH1 0x0 NOT DIV DUP4 GT DUP3 ISZERO ISZERO AND ISZERO PUSH2 0x2E5F JUMPI PUSH2 0x2E5F PUSH2 0x2CCD JUMP JUMPDEST POP MUL SWAP1 JUMP JUMPDEST PUSH4 0x4E487B71 PUSH1 0xE0 SHL PUSH1 0x0 MSTORE PUSH1 0x12 PUSH1 0x4 MSTORE PUSH1 0x24 PUSH1 0x0 REVERT JUMPDEST PUSH1 0x0 DUP3 PUSH2 0x2E89 JUMPI PUSH2 0x2E89 PUSH2 0x2E64 JUMP JUMPDEST POP DIV SWAP1 JUMP JUMPDEST PUSH1 0x0 DUP4 MLOAD PUSH2 0x2EA0 DUP2 DUP5 PUSH1 0x20 DUP9 ADD PUSH2 0x2818 JUMP JUMPDEST DUP4 MLOAD SWAP1 DUP4 ADD SWAP1 PUSH2 0x2EB4 DUP2 DUP4 PUSH1 0x20 DUP9 ADD PUSH2 0x2818 JUMP JUMPDEST ADD SWAP5 SWAP4 POP POP POP POP JUMP JUMPDEST PUSH1 0x20 DUP1 DUP3 MSTORE PUSH1 0x32 SWAP1 DUP3 ADD MSTORE PUSH32 0x4552433732313A207472616E7366657220746F206E6F6E204552433732315265 PUSH1 0x40 DUP3 ADD MSTORE PUSH18 0x31B2B4BB32B91034B6B83632B6B2B73A32B9 PUSH1 0x71 SHL PUSH1 0x60 DUP3 ADD MSTORE PUSH1 0x80 ADD SWAP1 JUMP JUMPDEST PUSH1 0x0 DUP3 PUSH2 0x2F1E JUMPI PUSH2 0x2F1E PUSH2 0x2E64 JUMP JUMPDEST POP MOD SWAP1 JUMP JUMPDEST PUSH1 0x1 PUSH1 0x1 PUSH1 0xA0 SHL SUB DUP6 DUP2 AND DUP3 MSTORE DUP5 AND PUSH1 0x20 DUP3 ADD MSTORE PUSH1 0x40 DUP2 ADD DUP4 SWAP1 MSTORE PUSH1 0x80 PUSH1 0x60 DUP3 ADD DUP2 SWAP1 MSTORE PUSH1 0x0 SWAP1 PUSH2 0x2F56 SWAP1 DUP4 ADD DUP5 PUSH2 0x2844 JUMP JUMPDEST SWAP7 SWAP6 POP POP POP POP POP POP JUMP JUMPDEST PUSH1 0x0 PUSH1 0x20 DUP3 DUP5 SUB SLT ISZERO PUSH2 0x2F72 JUMPI PUSH1 0x0 DUP1 REVERT JUMPDEST DUP2 MLOAD PUSH2 0x227E DUP2 PUSH2 0x27E5 JUMP JUMPDEST PUSH4 0x4E487B71 PUSH1 0xE0 SHL PUSH1 0x0 MSTORE PUSH1 0x31 PUSH1 0x4 MSTORE PUSH1 0x24 PUSH1 0x0 REVERT INVALID LOG2 PUSH5 0x6970667358 0x22 SLT KECCAK256 SIGNEXTEND JUMPI 0xC1 0x29 0xE5 CALLDATACOPY 0xE4 POP LOG3 SWAP13 DELEGATECALL PUSH3 0xD84C99 CREATE2 CALL MLOAD 0x4F DUP9 AND NOT 0x21 0xB7 0xC1 0xA7 0xDA SWAP3 RETURNDATACOPY 0x1F 0xC3 0xA6 PUSH5 0x736F6C6343 STOP ADDMOD MULMOD STOP CALLER ",
  "sha1": "df4453e9f4fd7fac20cf97b596947436abf4f5c4",
  "source": "// SPDX-License-Identifier: MIT\n\npragma solidity ^0.8.0;\n\nimport \"@openzeppelin/contracts/token/ERC721/extensions/ERC721Enumerable.sol\";\nimport \"@openzeppelin/contracts/access/Ownable.sol\";\n\ncontract FrigginEggs is ERC721Enumerable, Ownable {\n    using Strings for uint256;\n\n    // Optional mapping for token URIs\n    mapping(uint256 => string) private _tokenURIs;\n    string baseURI;\n    string public extensionURI;\n\n    enum STAGES {\n        PAUSED,\n        PRESALES,\n        MAIN\n    }\n\n    // Define names and description for each Token: People can edit them and it will be implemented in the metadata\n    mapping(uint256 => string) public FrigNames;\n    mapping(uint256 => string) public FrigDescriptions;\n\n    // Define the different prices for the different stages\n    uint256 private constant FrigPrice_PreSale = 0.04 ether; // PreSale Price : 0.04 ETH\n    uint256 private constant ThreeFrigPrice_PreSale = 0.108 ether; // PreSale Price : 0.108 ETH for 3\n    uint256 private constant TenFrigPrice_PreSale = 0.32 ether; // PreSale Price : 0.32 ETH for 10\n\n    uint256 private constant FrigPrice_MainSale = 0.05 ether; // PreSale Price : 0.05 ETH\n    uint256 private constant ThreeFrigPrice_MainSale = 0.135 ether; // PreSale Price : 0.135 ETH for 3\n    uint256 private constant TenFrigPrice_MainSale = 0.4 ether; // PreSale Price : 0.40 ETH for 10\n\n    uint256 constant MaxEggPerAccount = 15; // Maximum number of Eggs to mint per account\n    uint256 private FrigReserve = 5; // Number of Eggs for giveaways and contests\n    uint256 private FrigFreeMint = 5; // Number of Eggs available to mint for free\n\n    uint256 private MAX_Frig = 36;\n\n    STAGES public projectStage;\n\n    // addresses of the Team Member\n    address constant T = 0x1f2A9EC7f7b2dC4491E0206c65E8aB8F4B4c3c3f;\n    address constant K = 0x8f2EB78F0895bc4f93B6e65462Cb2458035ee817;\n    address constant M = 0x4C11FA301e246A32C4276B38be2bB689c0BA4bac;\n    address constant F = 0xdcE642cC913d21A2eE3c67CBd63c22A00A20Cd5f;\n    //community wallet\n    address constant C = 0x2e70F672A7F9D9f45Cf622965303EAb428B6Df04;\n\n    constructor() ERC721(\"FrigginEggs\", \"EGGS\") {\n        projectStage = STAGES.PAUSED;\n    }\n\n    /**\n     * SET THE DIFFERENT REQUIREMENTS FOR OUR TOKEN METADATA HANDLING\n     */\n    function _baseURI() internal view virtual override returns (string memory) {\n        return baseURI;\n    }\n\n    function setBaseURI(string memory baseURI_) public onlyOwner {\n        baseURI = baseURI_;\n    }\n\n    function _extensionURI() internal view virtual returns (string memory) {\n        return extensionURI;\n    }\n\n    function setExtensionURI(string memory extensionURI_) public onlyOwner {\n        extensionURI = extensionURI_;\n    }\n\n    function tokenURI(uint256 tokenId)\n        public\n        view\n        virtual\n        override\n        returns (string memory)\n    {\n        require(\n            _exists(tokenId),\n            \"ERC721URIStorage: URI query for nonexistent token\"\n        );\n\n        string memory _tokenURI = _tokenURIs[tokenId];\n\n        if (bytes(_tokenURI).length == 0) {\n            _tokenURI = tokenId.toString();\n        }\n\n        string memory base = _baseURI();\n        string memory extension = _extensionURI();\n\n        // If there is no base nor extension URI, return the token URI.\n        if (bytes(base).length == 0 && bytes(extension).length == 0) {\n            return _tokenURI;\n        }\n        // If only extension is set, concatenate the tokenURI and extensionURI (via abi.encodePacked).\n        if (bytes(base).length == 0 && bytes(extension).length > 0) {\n            return string(abi.encodePacked(_tokenURI, extension));\n        }\n        // If only base is set, concatenate the tokenURI and baseURI (via abi.encodePacked).\n        if (bytes(base).length > 0 && bytes(extension).length == 0) {\n            return string(abi.encodePacked(base, _tokenURI));\n        }\n        // If all are set, concatenate the baseURI, tokenURI and extensionURI (via abi.encodePacked).\n        if (bytes(_tokenURI).length > 0) {\n            return\n                string(\n                    abi.encodePacked(\n                        string(abi.encodePacked(base, _tokenURI)),\n                        extension\n                    )\n                );\n        }\n        return super.tokenURI(tokenId);\n    }\n\n    /**\n     * @dev Sets `_tokenURI` as the tokenURI of `tokenId`.\n     *\n     * Requirements:\n     *\n     * - `tokenId` must exist.\n     */\n    function setTokenURI(uint256 tokenId, string memory _tokenURI)\n        public\n        onlyOwner\n    {\n        require(\n            _exists(tokenId),\n            \"ERC721URIStorage: URI set of nonexistent token\"\n        );\n        _tokenURIs[tokenId] = _tokenURI;\n    }\n\n    /**\n     * @dev Destroys `tokenId`.\n     * The approval is cleared when the token is burned.\n     *\n     * Requirements:\n     *\n     * - `tokenId` must exist.\n     *\n     * Emits a {Transfer} event.\n     */\n    function _burn(uint256 tokenId) internal virtual override {\n        super._burn(tokenId);\n\n        if (bytes(_tokenURIs[tokenId]).length != 0) {\n            delete _tokenURIs[tokenId];\n        }\n    }\n\n    //** END OF METADATA HANDLING */\n\n    // Function for the team to send The FrigginEggs to winners of Giveaway\n    function reserveFrig(address _to, uint256 _reserveAmount) public onlyOwner {\n        uint256 supply = totalSupply();\n        require(\n            _reserveAmount > 0 && _reserveAmount <= FrigReserve,\n            \"Not enough eggs left in the reserve\"\n        );\n        for (uint256 i = 0; i < _reserveAmount; i++) {\n            _safeMint(_to, supply + i);\n        }\n        FrigReserve = FrigReserve - 1;\n    }\n\n    // Functions to change state of contract\n    function pauseProject() public onlyOwner {\n        projectStage = STAGES.PAUSED;\n    }\n\n    function changeToPreSales() public onlyOwner {\n        projectStage = STAGES.PRESALES;\n    }\n\n    function changeToMainSales() public onlyOwner {\n        projectStage = STAGES.MAIN;\n    }\n\n    // Function to get all tokens of a wallet (array uint256[])\n    function tokensOfOwner(address _owner)\n        external\n        view\n        returns (uint256[] memory)\n    {\n        uint256 tokenCount = balanceOf(_owner);\n        if (tokenCount != 0) {\n            uint256[] memory result = new uint256[](tokenCount);\n            uint256 index;\n            for (index = 0; index < tokenCount; index++) {\n                result[index] = tokenOfOwnerByIndex(_owner, index);\n            }\n            return result;\n        } else {\n            // Return an empty array\n            return new uint256[](0);\n        }\n    }\n\n    // Function to edit the name of your Friggin Egg (Free)\n    function changeName(uint256 _id, string memory FrigginName) public {\n        require(ownerOf(_id) == msg.sender, \"You do not own this FrigginEgg\");\n        FrigNames[_id] = FrigginName;\n    }\n\n    // Function to edit the description of your Friggin Egg (Free)\n    function changeDescription(uint256 _id, string memory FrigginDescription)\n        public\n    {\n        require(ownerOf(_id) == msg.sender, \"You do not own this FrigginEgg\");\n        FrigDescriptions[_id] = FrigginDescription;\n    }\n\n    // Function to get the prices\n    function getPriceToMintOne() public view returns (uint256) {\n        require(\n            projectStage != STAGES.PAUSED,\n            \"Sale must be active to get the price\"\n        );\n        if (projectStage == STAGES.PRESALES) {\n            return (FrigPrice_PreSale);\n        }\n        if (projectStage == STAGES.MAIN) {\n            return (FrigPrice_MainSale);\n        }\n        return (ThreeFrigPrice_MainSale);\n    }\n\n    function getPriceToMintThree() public view returns (uint256) {\n        require(\n            projectStage != STAGES.PAUSED,\n            \"Sale must be active to get the price\"\n        );\n        if (projectStage == STAGES.PRESALES) {\n            return (ThreeFrigPrice_PreSale);\n        }\n        if (projectStage == STAGES.MAIN) {\n            return (ThreeFrigPrice_MainSale);\n        }\n        return (ThreeFrigPrice_MainSale);\n    }\n\n    function getPriceToMintTen() public view returns (uint256) {\n        require(\n            projectStage != STAGES.PAUSED,\n            \"Sale must be active to get the price\"\n        );\n        if (projectStage == STAGES.PRESALES) {\n            return (TenFrigPrice_PreSale);\n        }\n        if (projectStage == STAGES.MAIN) {\n            return (TenFrigPrice_MainSale);\n        }\n        return (ThreeFrigPrice_MainSale);\n    }\n\n    // MINT FUNCTIONS\n    function _mintFrig(uint256 numberOfTokens, address sender) internal {\n        uint256 initialIndex = totalSupply();\n        for (uint256 i = 0; i < numberOfTokens; i++) {\n            _safeMint(sender, initialIndex + i);\n        }\n    }\n\n    function mintOneEgg() public payable {\n        require(\n            projectStage != STAGES.PAUSED,\n            \"Sale must be active to mint eggs\"\n        );\n        require(\n            totalSupply() + 1 <= MAX_Frig - FrigReserve,\n            \"Not enough Friggin Eggs for this amount mate\"\n        );\n        require(\n            balanceOf(msg.sender) < MaxEggPerAccount,\n            \"You reached the maximum amount for minting\"\n        );\n        require(getPriceToMintOne() <= msg.value, \"Incorrect amount of Ether\");\n\n        _mintFrig(1, msg.sender);\n    }\n\n    // Function to Mint a Free EGG -> NEED TO HAVE A TOTAL OF 0 EGGS TO CLAIM (only 1000 free eggs)\n    function mintEggForFree() public {\n        require(\n            projectStage != STAGES.PAUSED,\n            \"Sale must be active to mint Free eggs\"\n        );\n        require(FrigFreeMint >= 1, \"No more Free Eggs available\");\n        require(totalSupply() + 1 <= MAX_Frig - FrigReserve);\n        require(balanceOf(msg.sender) == 0, \"You already have a Friggin Egg\");\n\n        _safeMint(msg.sender, totalSupply());\n        FrigFreeMint = FrigFreeMint - 1;\n    }\n\n    function mintThreeEggs() public payable {\n        require(\n            projectStage != STAGES.PAUSED,\n            \"Sale must be active to mint eggs\"\n        );\n        require(\n            totalSupply() + 3 <= MAX_Frig - FrigReserve,\n            \"Not enough Friggin Eggs for this amount mate\"\n        );\n        require(\n            balanceOf(msg.sender) < MaxEggPerAccount - 2,\n            \"You reached the maximum amount for minting\"\n        );\n        require(\n            getPriceToMintThree() <= msg.value,\n            \"Incorrect amount of Ether\"\n        );\n\n        _mintFrig(3, msg.sender);\n    }\n\n    function mintTenEggs() public payable {\n        require(\n            projectStage != STAGES.PAUSED,\n            \"Sale must be active to mint eggs\"\n        );\n        require(\n            totalSupply() + 10 <= MAX_Frig - FrigReserve,\n            \"Not enough Friggin Eggs for this amount mate\"\n        );\n        require(\n            balanceOf(msg.sender) < MaxEggPerAccount - 9,\n            \"You reached the maximum amount for minting\"\n        );\n        require(getPriceToMintTen() <= msg.value, \"Incorrect amount of Ether\");\n\n        _mintFrig(10, msg.sender);\n    }\n\n    // 4% will go to the community wallet, withdraw function\n    function withdrawAll() public payable onlyOwner {\n        uint256 _each = (address(this).balance * 29) / 100;\n        uint256 _toF = (address(this).balance * 9) / 100;\n        require(payable(T).send(_each));\n        require(payable(K).send(_each));\n        require(payable(M).send(_each));\n        require(payable(F).send(_toF));\n        uint256 balance = address(this).balance;\n        require(payable(C).send(balance));\n    }\n}\n",
  "sourcePath": "contracts/FrigginEggs.sol",
  "type": "contract"
}